{
  "address": "0x2B2e7cA1318a9d8E587A2C24BD68de0EB628cB79",
  "abi": [
    {
      "inputs": [
        {
          "internalType": "address",
          "name": "target",
          "type": "address"
        }
      ],
      "name": "AddressEmptyCode",
      "type": "error"
    },
    {
      "inputs": [
        {
          "internalType": "address",
          "name": "account",
          "type": "address"
        }
      ],
      "name": "AddressInsufficientBalance",
      "type": "error"
    },
    {
      "inputs": [
        {
          "internalType": "address",
          "name": "_caller",
          "type": "address"
        }
      ],
      "name": "AmountShouldBePositive",
      "type": "error"
    },
    {
      "inputs": [
        {
          "internalType": "uint80",
          "name": "roundId",
          "type": "uint80"
        },
        {
          "internalType": "int256",
          "name": "answer",
          "type": "int256"
        }
      ],
      "name": "AnswerShouldBePositiveNum",
      "type": "error"
    },
    {
      "inputs": [
        {
          "internalType": "address",
          "name": "_caller",
          "type": "address"
        },
        {
          "internalType": "uint256",
          "name": "maxAmountToBorrowInUsd",
          "type": "uint256"
        },
        {
          "internalType": "uint256",
          "name": "amountToBeBorrowedInUsd",
          "type": "uint256"
        }
      ],
      "name": "CannotBorrowAmount",
      "type": "error"
    },
    {
      "inputs": [],
      "name": "CollateralMismatch",
      "type": "error"
    },
    {
      "inputs": [
        {
          "internalType": "address",
          "name": "_caller",
          "type": "address"
        },
        {
          "internalType": "address",
          "name": "_tokenAddress",
          "type": "address"
        }
      ],
      "name": "CollateralNotEnabled",
      "type": "error"
    },
    {
      "inputs": [],
      "name": "FailedInnerCall",
      "type": "error"
    },
    {
      "inputs": [],
      "name": "InsufficientProtocolFunds",
      "type": "error"
    },
    {
      "inputs": [
        {
          "internalType": "uint80",
          "name": "roundId",
          "type": "uint80"
        },
        {
          "internalType": "uint256",
          "name": "updatedAt",
          "type": "uint256"
        }
      ],
      "name": "InvalidTime",
      "type": "error"
    },
    {
      "inputs": [
        {
          "internalType": "contract IAggregatorV3",
          "name": "dataFeed",
          "type": "address"
        }
      ],
      "name": "OracleNotAvailable",
      "type": "error"
    },
    {
      "inputs": [],
      "name": "ReentrantCall",
      "type": "error"
    },
    {
      "inputs": [
        {
          "internalType": "address",
          "name": "token",
          "type": "address"
        }
      ],
      "name": "SafeERC20FailedOperation",
      "type": "error"
    },
    {
      "inputs": [
        {
          "internalType": "uint80",
          "name": "roundId",
          "type": "uint80"
        }
      ],
      "name": "StalePrice",
      "type": "error"
    },
    {
      "inputs": [],
      "name": "TokenAlreadyThere",
      "type": "error"
    },
    {
      "inputs": [
        {
          "internalType": "address",
          "name": "_caller",
          "type": "address"
        },
        {
          "internalType": "address",
          "name": "_tokenAddress",
          "type": "address"
        }
      ],
      "name": "TokenNotAllowed",
      "type": "error"
    },
    {
      "anonymous": false,
      "inputs": [
        {
          "indexed": false,
          "internalType": "address",
          "name": "borrowedToken",
          "type": "address"
        },
        {
          "indexed": false,
          "internalType": "uint256",
          "name": "_borrowedAmount",
          "type": "uint256"
        },
        {
          "indexed": true,
          "internalType": "address",
          "name": "_borrower",
          "type": "address"
        }
      ],
      "name": "Borrow",
      "type": "event"
    },
    {
      "inputs": [
        {
          "internalType": "address",
          "name": "_collateralAddress",
          "type": "address"
        },
        {
          "internalType": "address",
          "name": "tokenAddress",
          "type": "address"
        },
        {
          "internalType": "uint256",
          "name": "_tokenAmount",
          "type": "uint256"
        }
      ],
      "name": "borrow",
      "outputs": [],
      "stateMutability": "nonpayable",
      "type": "function"
    }
  ],
  "transactionHash": "0xc3bc2928b7ed0e3d33904b6054d2de5d9ccf45e2a3ccc042a73c9664c1a1d39f",
  "args": [],
  "numDeployments": 1,
  "solcInputHash": "bf3ace87e0080de70e4c37f388c527e3",
  "bytecode": "0x608060405234801561001057600080fd5b50610f29806100206000396000f3fe608060405234801561001057600080fd5b506004361061002b5760003560e01c80635224372c14610030575b600080fd5b61004361003e366004610c52565b610045565b005b3360009081527fb63cbb77d85e98261667d5fc207901bcdd6950bf6d20d991f2e751c25e9709cc602090815260408083206001600160a01b03871684529091529020600201548390610100900460ff166100c8576040516376596d7760e01b81523360048201526001600160a01b03821660248201526044015b60405180910390fd5b82827fb63cbb77d85e98261667d5fc207901bcdd6950bf6d20d991f2e751c25e9709ca6001600160a01b0383166000908152602091909152604090205468010000000000000000900460ff1661014257604051634afb130560e11b81523360048201526001600160a01b03831660248201526044016100bf565b806000036101655760405163f9a7ae8760e01b81523360048201526024016100bf565b60027fdbfac48fe43e706cd186aabbc9bf037f2ab712c873b1d76438c57a9d362adf9954036101a7576040516306fda65d60e31b815260040160405180910390fd5b60027fdbfac48fe43e706cd186aabbc9bf037f2ab712c873b1d76438c57a9d362adf995560006101f97fb63cbb77d85e98261667d5fc207901bcdd6950bf6d20d991f2e751c25e9709ca888888610281565b604080516001600160a01b03891681526020810188905291925033917f6856231d021c3bf5ff021b9c481488255d5b429e5a6b699baba09c6e2916bdb2910160405180910390a26102546001600160a01b0387163383610655565b5060017fdbfac48fe43e706cd186aabbc9bf037f2ab712c873b1d76438c57a9d362adf9955505050505050565b6000808061028f87876106c1565b909250905060006102a1888787610746565b9050818111156102d45760405163568bb44560e01b815233600482015260248101839052604481018290526064016100bf565b60008690506000816001600160a01b031663313ce5676040518163ffffffff1660e01b8152600401602060405180830381865afa158015610319573d6000803e3d6000fd5b505050506040513d601f19601f8201168201806040525081019061033d9190610c8e565b905061034a81600a610dab565b6103549088610dba565b6040516370a0823160e01b815230600482015290965086906001600160a01b038416906370a0823190602401602060405180830381865afa15801561039d573d6000803e3d6000fd5b505050506040513d601f19601f820116820180604052508101906103c19190610dd1565b10156103e057604051632122027360e11b815260040160405180910390fd5b33600090815260048b01602090815260408083206001600160a01b038c1684529091529020600281015460ff16801561046a5760028201546001600160a01b036101009091048116908c16811461044a5760405163128abb3560e21b815260040160405180910390fd5b8983600001600082825461045e9190610dea565b90915550610646915050565b60006040518060a001604052808b81526020014281526020016001151581526020018d6001600160a01b03168152602001898152509050808d6004016000336001600160a01b03166001600160a01b0316815260200190815260200160002060008d6001600160a01b03166001600160a01b03168152602001908152602001600020600082015181600001556020820151816001015560408201518160020160006101000a81548160ff02191690831515021790555060608201518160020160016101000a8154816001600160a01b0302191690836001600160a01b03160217905550608082015181600301559050508c6005016000336001600160a01b03166001600160a01b031681526020019081526020016000208b9080600181540180825580915050600190039060005260206000200160009091909190916101000a8154816001600160a01b0302191690836001600160a01b031602179055506105de338e60060161078390919063ffffffff16565b60018d6002016000336001600160a01b03166001600160a01b0316815260200190815260200160002060008e6001600160a01b03166001600160a01b0316815260200190815260200160002060020160026101000a81548160ff021916908315150217905550505b50505050505050949350505050565b604080516001600160a01b038416602482015260448082018490528251808303909101815260649091019091526020810180517bffffffffffffffffffffffffffffffffffffffffffffffffffffffff1663a9059cbb60e01b1790526106bc90849061084b565b505050565b33600090815260028301602090815260408083206001600160a01b038516845290915281205490806106f4858585610746565b6001600160a01b038516600090815260208790526040902054909150640100000000900461ffff16612710818302838104831484151760011661073657600080fd5b9497940490910394509192505050565b600080600061075586866108ae565b909250905061076581600a610dab565b61076f8386610dba565b6107799190610dfd565b9695505050505050565b60006107e8838054806020026020016040519081016040528092919081815260200182805480156107dd57602002820191906000526020600020905b81546001600160a01b031681526001909101906020018083116107bf575b505050505083610aa9565b905080610194036108325782546001810184556000848152602090200180546001600160a01b03841673ffffffffffffffffffffffffffffffffffffffff19909116179055505050565b604051634a10c57b60e01b815260040160405180910390fd5b60006108606001600160a01b03841683610b0e565b905080516000141580156108855750808060200190518101906108839190610e1f565b155b156106bc57604051635274afe760e01b81526001600160a01b03841660048201526024016100bf565b6001600160a01b03808216600090815260208490526040808220600101548151633fabe5a360e21b8152915192938493911691829163feaf968c9160048082019260a0929091908290030181865afa92505050801561092a575060408051601f3d908101601f1916820190925261092791810190610e5b565b60015b61095257604051638681218760e01b81526001600160a01b03821660048201526024016100bf565b600184121561098957604051633843011160e21b815269ffffffffffffffffffff86166004820152602481018590526044016100bf565b816000036109bf57604051636bd07e6160e01b815269ffffffffffffffffffff86166004820152602481018390526044016100bf565b7fdbfac48fe43e706cd186aabbc9bf037f2ab712c873b1d76438c57a9d362adf9a5474010000000000000000000000000000000000000000900463ffffffff16610a098342610eab565b1115610a36576040516306741d7b60e11b815269ffffffffffffffffffff861660048201526024016100bf565b50919550505050806001600160a01b031663313ce5676040518163ffffffff1660e01b8152600401602060405180830381865afa158015610a7b573d6000803e3d6000fd5b505050506040513d601f19601f82011682018060405250810190610a9f9190610c8e565b9150509250929050565b81516000905b80821015610b0157826001600160a01b0316848381518110610ad357610ad3610ebe565b60200260200101516001600160a01b031603610aef5750610b08565b81610af981610ed4565b925050610aaf565b6101949150505b92915050565b6060610b1c83836000610b23565b9392505050565b606081471015610b485760405163cd78605960e01b81523060048201526024016100bf565b600080856001600160a01b03168486604051610b649190610eed565b60006040518083038185875af1925050503d8060008114610ba1576040519150601f19603f3d011682016040523d82523d6000602084013e610ba6565b606091505b5091509150610779868383606082610bc657610bc182610c0d565b610b1c565b8151158015610bdd57506001600160a01b0384163b155b15610c0657604051639996b31560e01b81526001600160a01b03851660048201526024016100bf565b5080610b1c565b805115610c1d5780518082602001fd5b604051630a12f52160e11b815260040160405180910390fd5b80356001600160a01b0381168114610c4d57600080fd5b919050565b600080600060608486031215610c6757600080fd5b610c7084610c36565b9250610c7e60208501610c36565b9150604084013590509250925092565b600060208284031215610ca057600080fd5b815160ff81168114610b1c57600080fd5b634e487b7160e01b600052601160045260246000fd5b600181815b80851115610d02578160001904821115610ce857610ce8610cb1565b80851615610cf557918102915b93841c9390800290610ccc565b509250929050565b600082610d1957506001610b08565b81610d2657506000610b08565b8160018114610d3c5760028114610d4657610d62565b6001915050610b08565b60ff841115610d5757610d57610cb1565b50506001821b610b08565b5060208310610133831016604e8410600b8410161715610d85575081810a610b08565b610d8f8383610cc7565b8060001904821115610da357610da3610cb1565b029392505050565b6000610b1c60ff841683610d0a565b8082028115828204841417610b0857610b08610cb1565b600060208284031215610de357600080fd5b5051919050565b80820180821115610b0857610b08610cb1565b600082610e1a57634e487b7160e01b600052601260045260246000fd5b500490565b600060208284031215610e3157600080fd5b81518015158114610b1c57600080fd5b805169ffffffffffffffffffff81168114610c4d57600080fd5b600080600080600060a08688031215610e7357600080fd5b610e7c86610e41565b9450602086015193506040860151925060608601519150610e9f60808701610e41565b90509295509295909350565b81810381811115610b0857610b08610cb1565b634e487b7160e01b600052603260045260246000fd5b600060018201610ee657610ee6610cb1565b5060010190565b6000825160005b81811015610f0e5760208186018101518583015201610ef4565b50600092019182525091905056fea164736f6c6343000814000a",
  "devdoc": {
    "custom:version": "0.0.1",
    "details": "Keep in mind that *most* of the functions should be symmetric with `RepayFacet` ones",
    "errors": {
      "AddressEmptyCode(address)": [
        {
          "details": "There's no code at `target` (it is not a contract)."
        }
      ],
      "AddressInsufficientBalance(address)": [
        {
          "details": "The ETH balance of the account is not enough to perform the operation."
        }
      ],
      "FailedInnerCall()": [
        {
          "details": "A call to an address target failed. The target may have reverted."
        }
      ],
      "SafeERC20FailedOperation(address)": [
        {
          "details": "An operation with an ERC20 token failed."
        }
      ]
    },
    "kind": "dev",
    "methods": {
      "borrow(address,address,uint256)": {
        "custom:exec": "Sanity checks -> internal state changes, returns the scaled amount (currently) -> transfer",
        "custom:security": "`_tokenAmount` should be properly handled in the front-end; whole number",
        "params": {
          "_collateralAddress": "The address of the token which is going to be used as a collateral",
          "_tokenAmount": "The amount of tokens to borrow",
          "tokenAddress": "The address of the wanted token"
        }
      }
    },
    "title": "BorrowFacet",
    "version": 1
  },
  "userdoc": {
    "events": {
      "Borrow(address,uint256,address)": {
        "notice": "Emitted on a successful borrow from the protocol"
      }
    },
    "kind": "user",
    "methods": {
      "borrow(address,address,uint256)": {
        "notice": "Borrows a token amount"
      }
    },
    "version": 1
  },
  "storageLayout": {
    "storage": [],
    "types": null
  }
}