{
  "address": "0x7eA6Df6bc1ba3c0CeF7804a6a0a0C492B9AD1030",
  "abi": [
    {
      "inputs": [],
      "name": "NoTokensFound",
      "type": "error"
    },
    {
      "inputs": [
        {
          "components": [
            {
              "internalType": "address",
              "name": "mTokenAddress",
              "type": "address"
            },
            {
              "components": [
                {
                  "internalType": "uint16",
                  "name": "stakeStableRate",
                  "type": "uint16"
                },
                {
                  "internalType": "uint16",
                  "name": "borrowStableRate",
                  "type": "uint16"
                },
                {
                  "internalType": "uint16",
                  "name": "ltv",
                  "type": "uint16"
                },
                {
                  "internalType": "uint16",
                  "name": "liquidationThreshold",
                  "type": "uint16"
                },
                {
                  "internalType": "bool",
                  "name": "isAllowed",
                  "type": "bool"
                },
                {
                  "internalType": "address",
                  "name": "tokenAddress",
                  "type": "address"
                },
                {
                  "internalType": "contract IAggregatorV3",
                  "name": "dataFeed",
                  "type": "address"
                }
              ],
              "internalType": "struct AllowedToken[]",
              "name": "allowedTokens",
              "type": "tuple[]"
            }
          ],
          "internalType": "struct DiamondInit.DiamondInitArgs",
          "name": "_args",
          "type": "tuple"
        }
      ],
      "name": "init",
      "outputs": [],
      "stateMutability": "nonpayable",
      "type": "function"
    }
  ],
  "transactionHash": "0x8650e3b5fa3d9319dfe989fc5d5836dbbb74b188c82fe2bfd997ada925683563",
  "args": [],
  "numDeployments": 1,
  "solcInputHash": "bf3ace87e0080de70e4c37f388c527e3",
  "bytecode": "0x608060405234801561001057600080fd5b506105a0806100206000396000f3fe608060405234801561001057600080fd5b506004361061002b5760003560e01c8063d3d62b9814610030575b600080fd5b61004361003e36600461031d565b610045565b005b7f33db93811595d149127b48476bd7ca575d33b2af3516f373596199e9ec7c30236020527ffedc2076553f0daaf85d77e64f137f70c7df3d6e2afc35fea028f67801be3d198054600160ff1991821681179092557fd99b3967c607fc392d7cba4de5e3266d240b08d14eecd560823e59167b17a40480548216831790557f44077d5b86ca1ddb347bb5faf392f7f3a0209613674226b0c58d9e8f2ba1902080548216831790556307f5828d60e41b6000527f02d4138dbc1bc27ac87468f5f810f1b88129507e2e3f0ebf89e0481bfc8486788054909116821790557fdbfac48fe43e706cd186aabbc9bf037f2ab712c873b1d76438c57a9d362adf999081557f33db93811595d149127b48476bd7ca575d33b2af3516f373596199e9ec7c3020906101736020840184610377565b6001820180546001600160a01b03929092167fffffffffffffffff000000000000000000000000000000000000000000000000909216919091177601518000000000000000000000000000000000000000001790556101dd6101d86020850185610394565b6101e2565b505050565b7fb63cbb77d85e98261667d5fc207901bcdd6950bf6d20d991f2e751c25e9709ca8160008190036102265760405163776acd5b60e01b815260040160405180910390fd5b60005b81811015610316576000858583818110610245576102456103e4565b905060e0020160a001602081019061025d9190610377565b6001600160a01b03811660009081526020869052604090205490915068010000000000000000900460ff168061030c5786868481811061029f5761029f6103e4565b6001600160a01b038516600090815260208990526040902060e0909102929092019190506102cd8282610433565b505060018581018054918201815560009081526020902001805473ffffffffffffffffffffffffffffffffffffffff19166001600160a01b0384161790555b5050600101610229565b5050505050565b60006020828403121561032f57600080fd5b813567ffffffffffffffff81111561034657600080fd5b82016040818503121561035857600080fd5b9392505050565b6001600160a01b038116811461037457600080fd5b50565b60006020828403121561038957600080fd5b81356103588161035f565b6000808335601e198436030181126103ab57600080fd5b83018035915067ffffffffffffffff8211156103c657600080fd5b602001915060e0810236038213156103dd57600080fd5b9250929050565b634e487b7160e01b600052603260045260246000fd5b6000813561ffff8116811461040e57600080fd5b92915050565b60008135801515811461040e57600080fd5b6000813561040e8161035f565b61ffff61043f836103fa565b1681548161ffff19821617835563ffff000061045d602086016103fa565b60101b16808363ffffffff1984161717845565ffff00000000610482604087016103fa565b60201b168365ffffffffffff1984161782171784555050506104cb6104a9606084016103fa565b825467ffff000000000000191660309190911b67ffff00000000000016178255565b6105026104da60808401610414565b82805468ff0000000000000000191691151560401b68ff000000000000000016919091179055565b61055f61051160a08401610426565b82547fffffff0000000000000000000000000000000000000000ffffffffffffffffff1660489190911b7cffffffffffffffffffffffffffffffffffffffff00000000000000000016178255565b61058f61056e60c08401610426565b600183016001600160a01b0382166001600160a01b03198254161781555050565b505056fea164736f6c6343000814000a",
  "devdoc": {
    "custom:advice": "See the suggestions made in `Diamond.sol`, keep them in mind throughout the Diamond contracts",
    "custom:security": "It is only called once in the diamond constructor and is not saved as a facet within the diamond",
    "custom:version": "0.0.1",
    "kind": "dev",
    "methods": {
      "init((address,(uint16,uint16,uint16,uint16,bool,address,address)[]))": {
        "params": {
          "_args": "Initial arguments"
        }
      }
    },
    "title": "DiamondInit",
    "version": 1
  },
  "userdoc": {
    "kind": "user",
    "methods": {
      "init((address,(uint16,uint16,uint16,uint16,bool,address,address)[]))": {
        "notice": "Sets state variables"
      }
    },
    "notice": "Contract for setting state variables in the diamond during deployment or an upgrade",
    "version": 1
  },
  "storageLayout": {
    "storage": [],
    "types": null
  }
}