{
  "address": "0xB4CAc24d60b947313185A6346F7a8CA73424aF5C",
  "abi": [
    {
      "inputs": [
        {
          "components": [
            {
              "internalType": "address",
              "name": "owner",
              "type": "address"
            },
            {
              "internalType": "address",
              "name": "diamondInit",
              "type": "address"
            },
            {
              "internalType": "bytes",
              "name": "data",
              "type": "bytes"
            }
          ],
          "internalType": "struct Diamond.DiamondArgs",
          "name": "_args",
          "type": "tuple"
        },
        {
          "internalType": "address",
          "name": "_diamondCutFacet",
          "type": "address"
        }
      ],
      "stateMutability": "nonpayable",
      "type": "constructor"
    },
    {
      "inputs": [],
      "name": "CannotReplaceTheSameFunction",
      "type": "error"
    },
    {
      "inputs": [],
      "name": "FunctionAlreadyExists",
      "type": "error"
    },
    {
      "inputs": [],
      "name": "FunctionDoesNotExist",
      "type": "error"
    },
    {
      "inputs": [],
      "name": "ImmutableFunctionDetected",
      "type": "error"
    },
    {
      "inputs": [
        {
          "internalType": "uint8",
          "name": "_actionNum",
          "type": "uint8"
        }
      ],
      "name": "IncorrectFacetCutAction",
      "type": "error"
    },
    {
      "inputs": [
        {
          "internalType": "address",
          "name": "_initializationContractAddress",
          "type": "address"
        },
        {
          "internalType": "bytes",
          "name": "_calldata",
          "type": "bytes"
        }
      ],
      "name": "InitializationFunctionReverted",
      "type": "error"
    },
    {
      "inputs": [
        {
          "internalType": "address",
          "name": "_caller",
          "type": "address"
        }
      ],
      "name": "MustBeDiamondOwner",
      "type": "error"
    },
    {
      "inputs": [
        {
          "internalType": "address",
          "name": "_newFacetAddress",
          "type": "address"
        }
      ],
      "name": "MustBeZeroAddress",
      "type": "error"
    },
    {
      "inputs": [],
      "name": "NoSelectorFound",
      "type": "error"
    },
    {
      "inputs": [],
      "name": "TransferFailed",
      "type": "error"
    },
    {
      "anonymous": false,
      "inputs": [
        {
          "components": [
            {
              "internalType": "address",
              "name": "facetAddress",
              "type": "address"
            },
            {
              "internalType": "enum IDiamondCutFacet.FacetCutAction",
              "name": "action",
              "type": "uint8"
            },
            {
              "internalType": "bytes4[]",
              "name": "functionSelectors",
              "type": "bytes4[]"
            }
          ],
          "indexed": false,
          "internalType": "struct IDiamondCutFacet.FacetCut[]",
          "name": "_diamondCut",
          "type": "tuple[]"
        },
        {
          "indexed": false,
          "internalType": "address",
          "name": "_init",
          "type": "address"
        },
        {
          "indexed": false,
          "internalType": "bytes",
          "name": "_calldata",
          "type": "bytes"
        }
      ],
      "name": "DiamondCut",
      "type": "event"
    },
    {
      "anonymous": false,
      "inputs": [
        {
          "indexed": true,
          "internalType": "address",
          "name": "previousOwner",
          "type": "address"
        },
        {
          "indexed": true,
          "internalType": "address",
          "name": "newOwner",
          "type": "address"
        }
      ],
      "name": "OwnershipTransferred",
      "type": "event"
    },
    {
      "stateMutability": "payable",
      "type": "fallback"
    },
    {
      "inputs": [],
      "name": "rescue",
      "outputs": [],
      "stateMutability": "nonpayable",
      "type": "function"
    },
    {
      "stateMutability": "payable",
      "type": "receive"
    }
  ],
  "transactionHash": "0x61c7eeeb6dffbd546f6184cc553383355db8c600a09d174202e7bc6a31a38625",
  "args": [
    {
      "owner": "0x8dfD6AE6d263262da0E4a2634d899a0085923Fbc",
      "diamondInit": "0x7eA6Df6bc1ba3c0CeF7804a6a0a0C492B9AD1030",
      "data": "0xd3d62b98000000000000000000000000000000000000000000000000000000000000002000000000000000000000000062ef433a9cf0c199f76e8f1434eb9f8e4ad71eb30000000000000000000000000000000000000000000000000000000000000040000000000000000000000000000000000000000000000000000000000000000200000000000000000000000000000000000000000000000000000000000003e800000000000000000000000000000000000000000000000000000000000001f400000000000000000000000000000000000000000000000000000000000001f400000000000000000000000000000000000000000000000000000000000023280000000000000000000000000000000000000000000000000000000000000001000000000000000000000000ff34b3d4aee8ddcd6f9afffb6fe49bd371b8a3570000000000000000000000000d79df66be487753b02d015fb622ded7f0e9798d00000000000000000000000000000000000000000000000000000000000005dc00000000000000000000000000000000000000000000000000000000000003e800000000000000000000000000000000000000000000000000000000000005dc0000000000000000000000000000000000000000000000000000000000001f400000000000000000000000000000000000000000000000000000000000000001000000000000000000000000f8fb3713d459d7c1018bd0a49d19b4c44290ebe500000000000000000000000048731cf7e84dc94c5f84577882c14be11a5b7456"
    },
    "0xFFEAB444c96EBf2f28CE1Fa04AAB0535042262b1"
  ],
  "numDeployments": 3,
  "solcInputHash": "bf3ace87e0080de70e4c37f388c527e3",
  "bytecode": "0x60806040523480156200001157600080fd5b5060405162000ff338038062000ff3833981016040819052620000349162000a51565b8151620000529060008051602062000f5f833981519152906200017f565b604080516001808252818301909252600091816020015b60408051606080820183526000808352602083015291810191909152815260200190600190039081620000695750506040805160018082528183019092529192506000919060208083019080368337019050509050631f931c1c60e01b81600081518110620000dc57620000dc62000b5a565b6001600160e01b031990921660209283029190910182015260408051606081019091526001600160a01b03851681529081016000815260200182815250826000815181106200012f576200012f62000b5a565b6020026020010181905250620001628285602001518660400151620001596200016c60201b60201c565b929190620001d4565b5050505062000da5565b60008051602062000f5f83398151915290565b6004820180546001600160a01b038381166001600160a01b0319831681179093556040519116919082907f8be0079c531659141344cd1fd0a4f28419497f9722a3daafe3b4186f6b6457e090600090a3505050565b600284015461ffff811690819060009060071615620002055750600381901c60009081526001870160205260409020545b60005b865181101562000295576200028783838984815181106200022d576200022d62000b5a565b6020026020010151600001518a85815181106200024e576200024e62000b5a565b6020026020010151602001518b86815181106200026f576200026f62000b5a565b6020026020010151604001516200032760201b60201c565b909350915060010162000208565b50828214620002b25760028701805461ffff191661ffff84161790555b6007821615620002d557600382901c600090815260018801602052604090208190555b7f8faa70878671ccd212d20771b795c50af8fd3ff6cf27f4bde57e5d4de0aeb6738686866040516200030a9392919062000bb4565b60405180910390a16200031e85856200089e565b50505050505050565b6000808060008051602062000f5f833981519152905060018451101562000361576040516346d699e360e11b815260040160405180910390fd5b600085600281111562000378576200037862000b70565b036200049f57620003a38660405180606001604052806024815260200162000f7f6024913962000976565b60005b845181101562000498576000858281518110620003c757620003c762000b5a565b6020908102919091018101516001600160e01b03198116600090815291859052604090912054909150606081901c15620004145760405163a023275d60e01b815260040160405180910390fd5b6001600160e01b031980831660008181526020879052604090206001600160601b031960608d901b168e17905560e060058e901b811692831c199c909c1690821c179a819003620004795760038c901c600090815260018601602052604081209b909b555b8b620004858162000cd1565b9c505060019093019250620003a6915050565b5062000892565b6001856002811115620004b657620004b662000b70565b03620005f157620004e18660405180606001604052806028815260200162000fcb6028913962000976565b60005b84518110156200049857600085828151811062000505576200050562000b5a565b6020908102919091018101516001600160e01b03198116600090815291859052604090912054909150606081901c308103620005545760405163dc90201360e01b815260040160405180910390fd5b896001600160a01b0316816001600160a01b03160362000587576040516379cc663760e01b815260040160405180910390fd5b6001600160a01b038116620005af57604051631535ac5f60e31b815260040160405180910390fd5b506001600160e01b031990911660009081526020849052604090206001600160601b03919091166001600160601b031960608a901b16179055600101620004e4565b600285600281111562000608576200060862000b70565b036200085d576001600160a01b03861615620006475760405163136f5a4b60e31b81526001600160a01b03871660048201526024015b60405180910390fd5b600388901c6007891660005b8651811015620008385760008a9003620006945782620006738162000ced565b60008181526001870160205260409020549b50935060079250620006a49050565b81620006a08162000ced565b9250505b6000806000808a8581518110620006bf57620006bf62000b5a565b6020908102919091018101516001600160e01b031981166000908152918a9052604090912054909150606081901c6200070b57604051631535ac5f60e31b815260040160405180910390fd5b30606082901c03620007305760405163dc90201360e01b815260040160405180910390fd5b600587901b8f901b94506001600160e01b03198086169083161462000782576001600160e01b03198516600090815260208a90526040902080546001600160601b0319166001600160601b0383161790555b6001600160e01b031991909116600090815260208990526040812055600381901c611fff16925060051b60e0169050858214620007e9576000828152600188016020526040902080546001600160e01b031980841c19909116908516831c1790556200080d565b80836001600160e01b031916901c816001600160e01b031960001b901c198e16179c505b846000036200082c57600086815260018801602052604081208190559c505b50505060010162000653565b50806200084783600862000d07565b62000853919062000d27565b9950505062000892565b84600281111562000872576200087262000b70565b604051633ff4d20f60e11b815260ff90911660048201526024016200063e565b50959694955050505050565b6001600160a01b038216620008b1575050565b620008d68260405180606001604052806028815260200162000fa36028913962000976565b600080836001600160a01b031683604051620008f3919062000d3d565b600060405180830381855af49150503d806000811462000930576040519150601f19603f3d011682016040523d82523d6000602084013e62000935565b606091505b5091509150816200097057805115620009515780518082602001fd5b838360405163192105d760e01b81526004016200063e92919062000d5b565b50505050565b813b8181620009705760405162461bcd60e51b81526004016200063e919062000d89565b634e487b7160e01b600052604160045260246000fd5b604051606081016001600160401b0381118282101715620009d557620009d56200099a565b60405290565b604051601f8201601f191681016001600160401b038111828210171562000a065762000a066200099a565b604052919050565b80516001600160a01b038116811462000a2657600080fd5b919050565b60005b8381101562000a4857818101518382015260200162000a2e565b50506000910152565b6000806040838503121562000a6557600080fd5b82516001600160401b038082111562000a7d57600080fd5b908401906060828703121562000a9257600080fd5b62000a9c620009b0565b62000aa78362000a0e565b8152602062000ab881850162000a0e565b8183015260408401518381111562000acf57600080fd5b80850194505087601f85011262000ae557600080fd5b83518381111562000afa5762000afa6200099a565b62000b0e601f8201601f19168301620009db565b9350808452888282870101111562000b2557600080fd5b62000b368183860184880162000a2b565b5082604083015281955062000b4d81880162000a0e565b9450505050509250929050565b634e487b7160e01b600052603260045260246000fd5b634e487b7160e01b600052602160045260246000fd5b6000815180845262000ba081602086016020860162000a2b565b601f01601f19169290920160200192915050565b60006060808301818452808751808352608092508286019150828160051b8701016020808b0160005b8481101562000c8957898403607f19018652815180516001600160a01b0316855283810151898601906003811062000c2557634e487b7160e01b600052602160045260246000fd5b868601526040918201519186018a905281519081905290840190600090898701905b8083101562000c735783516001600160e01b031916825292860192600192909201919086019062000c47565b5097850197955050509082019060010162000bdd565b50506001600160a01b038a1690880152868103604088015262000cad818962000b86565b9a9950505050505050505050565b634e487b7160e01b600052601160045260246000fd5b60006001820162000ce65762000ce662000cbb565b5060010190565b60008162000cff5762000cff62000cbb565b506000190190565b808202811582820484141762000d215762000d2162000cbb565b92915050565b8082018082111562000d215762000d2162000cbb565b6000825162000d5181846020870162000a2b565b9190910192915050565b6001600160a01b038316815260406020820181905260009062000d819083018462000b86565b949350505050565b60208152600062000d9e602083018462000b86565b9392505050565b6101aa8062000db56000396000f3fe6080604052600436106100225760003560e01c80631fbe1979146100c157610029565b3661002957005b600080357fffffffff000000000000000000000000000000000000000000000000000000001681527f33db93811595d149127b48476bd7ca575d33b2af3516f373596199e9ec7c3020602052604090205460601c8061009b57604051631535ac5f60e31b815260040160405180910390fd5b3660008037600080366000845af43d6000803e8080156100ba573d6000f35b3d6000fd5b005b3480156100cd57600080fd5b506100bf7f33db93811595d149127b48476bd7ca575d33b2af3516f373596199e9ec7c30206004015473ffffffffffffffffffffffffffffffffffffffff1633146101315760405163d0d827f160e01b815233600482015260240160405180910390fd5b604051600090339047908381818185875af1925050503d8060008114610173576040519150601f19603f3d011682016040523d82523d6000602084013e610178565b606091505b505090508061019a576040516312171d8360e31b815260040160405180910390fd5b5056fea164736f6c6343000814000a33db93811595d149127b48476bd7ca575d33b2af3516f373596199e9ec7c30204c69624469616d6f6e644375743a2041646420666163657420686173206e6f20636f64654c69624469616d6f6e644375743a205f696e6974206164647265737320686173206e6f20636f64654c69624469616d6f6e644375743a205265706c61636520666163657420686173206e6f20636f6465",
  "facets": [
    {
      "facetAddress": "0xFFEAB444c96EBf2f28CE1Fa04AAB0535042262b1",
      "functionSelectors": [
        "0x1f931c1c"
      ]
    },
    {
      "facetAddress": "0xc5FF7DF6Ab6621691D52829aD176BC18b0331Fd9",
      "functionSelectors": [
        "0xcdffacc6",
        "0x52ef6b2c",
        "0xadfca15e",
        "0x7a0ed627",
        "0x01ffc9a7"
      ]
    },
    {
      "facetAddress": "0xd8D8344fA59D1c1079395970385107C49B3AC8Eb",
      "functionSelectors": [
        "0x8da5cb5b",
        "0xf2fde38b"
      ]
    },
    {
      "facetAddress": "0xe538AB745ce87c2ef4dbf7C4Cff28C1011a12687",
      "functionSelectors": [
        "0x47e7ef24",
        "0xb75faac0",
        "0x97279197"
      ]
    },
    {
      "facetAddress": "0x2B2e7cA1318a9d8E587A2C24BD68de0EB628cB79",
      "functionSelectors": [
        "0x5224372c"
      ]
    },
    {
      "facetAddress": "0x7d8d52DB01C53c1CDFa169c99822d203573eDBb7",
      "functionSelectors": [
        "0x1da649cf"
      ]
    },
    {
      "facetAddress": "0xb02467Cc764390Ac48a628979D35185d47F354Ae",
      "functionSelectors": [
        "0xf3fef3a3"
      ]
    },
    {
      "facetAddress": "0x296216d8c63769E3bC68a17F58C27eE1b8722Aea",
      "functionSelectors": [
        "0x86b9d81f"
      ]
    },
    {
      "facetAddress": "0x5Bf828D2F291b6f66A5c2D80b4d6695Ec1E65345",
      "functionSelectors": [
        "0x669d7631"
      ]
    },
    {
      "facetAddress": "0x30c2FC007867CcaAe7083a86f208Accc2DD3792d",
      "functionSelectors": [
        "0x5d78650e",
        "0x32abcdbe",
        "0x6178bad6",
        "0x02f8e9a3",
        "0x73a050c9",
        "0x63c28db1",
        "0xad8b3435"
      ]
    }
  ],
  "devdoc": {
    "author": "Forked implementation with minor compatibility modifications. Original source: https://github.com/mudgen",
    "custom:advice": "If your project's complexity requires it, consider creating your own implementationConsider adding events and more parameters to the custom errors throughout the Diamond contracts for improved monitoring",
    "custom:version": "0.0.1",
    "kind": "dev",
    "methods": {
      "constructor": {
        "details": "Be aware that `data` is executed with delegatecall on the `DiamondInit` contract",
        "params": {
          "_args": "Initial arguments"
        }
      }
    },
    "title": "Diamond",
    "version": 1
  },
  "userdoc": {
    "events": {
      "DiamondCut((address,uint8,bytes4[])[],address,bytes)": {
        "notice": "Emitted on a successful cut"
      },
      "OwnershipTransferred(address,address)": {
        "notice": "Emitted when diamond owner is updated"
      }
    },
    "kind": "user",
    "methods": {
      "constructor": {
        "notice": "Sets the diamond owner, cuts the @param _diamondCutFacet address, and then calls the `DiamondInit` contract with `data`"
      },
      "rescue()": {
        "notice": "A rescue function for missent/donated *msg.value*"
      }
    },
    "notice": "Diamond proxy contract. Serves as the primary entry point for the protocol",
    "version": 1
  },
  "storageLayout": {
    "storage": [],
    "types": null
  }
}