{
  "address": "0xc5FF7DF6Ab6621691D52829aD176BC18b0331Fd9",
  "abi": [
    {
      "inputs": [],
      "name": "TooManyFunctionsInAFacet",
      "type": "error"
    },
    {
      "inputs": [
        {
          "internalType": "bytes4",
          "name": "_functionSelector",
          "type": "bytes4"
        }
      ],
      "name": "facetAddress",
      "outputs": [
        {
          "internalType": "address",
          "name": "facetAddress_",
          "type": "address"
        }
      ],
      "stateMutability": "view",
      "type": "function"
    },
    {
      "inputs": [],
      "name": "facetAddresses",
      "outputs": [
        {
          "internalType": "address[]",
          "name": "facetAddresses_",
          "type": "address[]"
        }
      ],
      "stateMutability": "view",
      "type": "function"
    },
    {
      "inputs": [
        {
          "internalType": "address",
          "name": "_facet",
          "type": "address"
        }
      ],
      "name": "facetFunctionSelectors",
      "outputs": [
        {
          "internalType": "bytes4[]",
          "name": "_facetFunctionSelectors",
          "type": "bytes4[]"
        }
      ],
      "stateMutability": "view",
      "type": "function"
    },
    {
      "inputs": [],
      "name": "facets",
      "outputs": [
        {
          "components": [
            {
              "internalType": "address",
              "name": "facetAddress",
              "type": "address"
            },
            {
              "internalType": "bytes4[]",
              "name": "functionSelectors",
              "type": "bytes4[]"
            }
          ],
          "internalType": "struct IDiamondLoupeFacet.Facet[]",
          "name": "facets_",
          "type": "tuple[]"
        }
      ],
      "stateMutability": "view",
      "type": "function"
    },
    {
      "inputs": [
        {
          "internalType": "bytes4",
          "name": "_interfaceId",
          "type": "bytes4"
        }
      ],
      "name": "supportsInterface",
      "outputs": [
        {
          "internalType": "bool",
          "name": "",
          "type": "bool"
        }
      ],
      "stateMutability": "view",
      "type": "function"
    }
  ],
  "transactionHash": "0x6d990e1f38e9a18ba7e681e9466aa0adcd07680e1f88ad38c9573b2d36a932df",
  "args": [],
  "numDeployments": 1,
  "solcInputHash": "bf3ace87e0080de70e4c37f388c527e3",
  "bytecode": "0x608060405234801561001057600080fd5b50610b4f806100206000396000f3fe608060405234801561001057600080fd5b50600436106100675760003560e01c80637a0ed627116100505780637a0ed627146100e2578063adfca15e146100f7578063cdffacc61461011757600080fd5b806301ffc9a71461006c57806352ef6b2c146100cd575b600080fd5b6100b861007a36600461094a565b6001600160e01b03191660009081527f33db93811595d149127b48476bd7ca575d33b2af3516f373596199e9ec7c3023602052604090205460ff1690565b60405190151581526020015b60405180910390f35b6100d561017b565b6040516100c4919061097b565b6100ea610351565b6040516100c49190610a0d565b61010a610105366004610a8a565b6107c6565b6040516100c49190610ab3565b61016361012536600461094a565b6001600160e01b03191660009081527f33db93811595d149127b48476bd7ca575d33b2af3516f373596199e9ec7c3020602052604090205460601c90565b6040516001600160a01b0390911681526020016100c4565b7f33db93811595d149127b48476bd7ca575d33b2af3516f373596199e9ec7c3022546060907f33db93811595d149127b48476bd7ca575d33b2af3516f373596199e9ec7c30209061ffff1667ffffffffffffffff8111156101de576101de610ac6565b604051908082528060200260200182016040528015610207578160200160208202803683370190505b50915060008060005b600284015461ffff16821015610349576000818152600185016020526040812054905b6008811015610334578361024681610af2565b600288015490955061ffff168511905061033457600581901b82901b6001600160e01b0319811660009081526020889052604081205460601c90805b888110156102d7578a818151811061029c5761029c610b0b565b60200260200101516001600160a01b0316836001600160a01b0316036102c557600191506102d7565b806102cf81610af2565b915050610282565b5080156102e657505050610322565b818a89815181106102f9576102f9610b0b565b6001600160a01b03909216602092830291909101909101528761031b81610af2565b9850505050505b8061032c81610af2565b915050610233565b5050808061034190610af2565b915050610210565b505082525090565b7f33db93811595d149127b48476bd7ca575d33b2af3516f373596199e9ec7c3022546060907f33db93811595d149127b48476bd7ca575d33b2af3516f373596199e9ec7c30209061ffff1667ffffffffffffffff8111156103b4576103b4610ac6565b6040519080825280602002602001820160405280156103fa57816020015b6040805180820190915260008152606060208201528152602001906001900390816103d25790505b50600282015490925060009061ffff1667ffffffffffffffff81111561042257610422610ac6565b60405190808252806020026020018201604052801561044b578160200160208202803683370190505b50905060008060005b600285015461ffff16821015610753576000818152600186016020526040812054905b600881101561073e578361048a81610af2565b600289015490955061ffff168511905061073e57600581901b82901b6001600160e01b0319811660009081526020899052604081205460601c90805b888110156105fb57826001600160a01b03168c82815181106104ea576104ea610b0b565b6020026020010151600001516001600160a01b0316036105e957838c828151811061051757610517610b0b565b6020026020010151602001518b838151811061053557610535610b0b565b602002602001015161ffff168151811061055157610551610b0b565b60200260200101906001600160e01b03191690816001600160e01b0319168152505060fe8a828151811061058757610587610b0b565b602002602001015161ffff1611156105b257604051634e2a65f560e11b815260040160405180910390fd5b8981815181106105c4576105c4610b0b565b6020026020010180518091906105d990610b21565b61ffff16905250600191506105fb565b806105f381610af2565b9150506104c6565b50801561060a5750505061072c565b818b898151811061061d5761061d610b0b565b60209081029190910101516001600160a01b03909116905260028a015461ffff1667ffffffffffffffff81111561065657610656610ac6565b60405190808252806020026020018201604052801561067f578160200160208202803683370190505b508b898151811061069257610692610b0b565b602002602001015160200181905250828b89815181106106b4576106b4610b0b565b6020026020010151602001516000815181106106d2576106d2610b0b565b60200260200101906001600160e01b03191690816001600160e01b03191681525050600189898151811061070857610708610b0b565b61ffff909216602092830291909101909101528761072581610af2565b9850505050505b8061073681610af2565b915050610477565b5050808061074b90610af2565b915050610454565b5060005b828110156107bb57600084828151811061077357610773610b0b565b602002602001015161ffff169050600087838151811061079557610795610b0b565b6020026020010151602001519050818152505080806107b390610af2565b915050610757565b508185525050505090565b7f33db93811595d149127b48476bd7ca575d33b2af3516f373596199e9ec7c3022546060907f33db93811595d149127b48476bd7ca575d33b2af3516f373596199e9ec7c30209060009061ffff1667ffffffffffffffff81111561082c5761082c610ac6565b604051908082528060200260200182016040528015610855578160200160208202803683370190505b5092506000805b600284015461ffff16821015610940576000818152600185016020526040812054905b600881101561092b578361089281610af2565b600288015490955061ffff168511905061092b57600581901b82901b6001600160e01b0319811660009081526020889052604090205460601c6001600160a01b038a1681900361091657818988815181106108ef576108ef610b0b565b6001600160e01b0319909216602092830291909101909101528661091281610af2565b9750505b5050808061092390610af2565b91505061087f565b5050808061093890610af2565b91505061085c565b5050825250919050565b60006020828403121561095c57600080fd5b81356001600160e01b03198116811461097457600080fd5b9392505050565b6020808252825182820181905260009190848201906040850190845b818110156109bc5783516001600160a01b031683529284019291840191600101610997565b50909695505050505050565b600081518084526020808501945080840160005b83811015610a025781516001600160e01b031916875295820195908201906001016109dc565b509495945050505050565b60006020808301818452808551808352604092508286019150828160051b87010184880160005b83811015610a7c57888303603f19018552815180516001600160a01b03168452870151878401879052610a69878501826109c8565b9588019593505090860190600101610a34565b509098975050505050505050565b600060208284031215610a9c57600080fd5b81356001600160a01b038116811461097457600080fd5b60208152600061097460208301846109c8565b634e487b7160e01b600052604160045260246000fd5b634e487b7160e01b600052601160045260246000fd5b600060018201610b0457610b04610adc565b5060010190565b634e487b7160e01b600052603260045260246000fd5b600061ffff808316818103610b3857610b38610adc565b600101939250505056fea164736f6c6343000814000a",
  "devdoc": {
    "custom:version": "0.0.1",
    "kind": "dev",
    "methods": {
      "facetAddresses()": {
        "returns": {
          "facetAddresses_": "{address[]}"
        }
      },
      "facetFunctionSelectors(address)": {
        "returns": {
          "_facetFunctionSelectors": "{bytes4[]}"
        }
      },
      "facets()": {
        "returns": {
          "facets_": "{Facet[]}"
        }
      },
      "supportsInterface(bytes4)": {
        "params": {
          "interfaceId": "The interface identifier, as specified in ERC-165"
        },
        "returns": {
          "_0": "`true` if the contract implements `interfaceID` and `interfaceID` is not 0xffffffff, `false` otherwise"
        }
      }
    },
    "title": "DiamondLoupeFacet",
    "version": 1
  },
  "userdoc": {
    "kind": "user",
    "methods": {
      "facetAddress(bytes4)": {
        "notice": "Gets the @return facetAddress_ that supports given @param _functionSelector"
      },
      "facetAddresses()": {
        "notice": "Gets all facet addresses used by a diamond"
      },
      "facetFunctionSelectors(address)": {
        "notice": "Gets all the function selectors supported by a specific @param _facet"
      },
      "facets()": {
        "notice": "Gets all facets and their selectors"
      },
      "supportsInterface(bytes4)": {
        "notice": "Query if a contract implements an interface"
      }
    },
    "notice": "Declares related functions that tell you what functions and facets are provided by the diamond",
    "version": 1
  },
  "storageLayout": {
    "storage": [],
    "types": null
  }
}