{
  "address": "0x62Ef433A9cF0c199f76e8f1434eB9F8E4ad71Eb3",
  "abi": [
    {
      "inputs": [],
      "stateMutability": "nonpayable",
      "type": "constructor"
    },
    {
      "inputs": [
        {
          "internalType": "address",
          "name": "spender",
          "type": "address"
        },
        {
          "internalType": "uint256",
          "name": "allowance",
          "type": "uint256"
        },
        {
          "internalType": "uint256",
          "name": "needed",
          "type": "uint256"
        }
      ],
      "name": "ERC20InsufficientAllowance",
      "type": "error"
    },
    {
      "inputs": [
        {
          "internalType": "address",
          "name": "sender",
          "type": "address"
        },
        {
          "internalType": "uint256",
          "name": "balance",
          "type": "uint256"
        },
        {
          "internalType": "uint256",
          "name": "needed",
          "type": "uint256"
        }
      ],
      "name": "ERC20InsufficientBalance",
      "type": "error"
    },
    {
      "inputs": [
        {
          "internalType": "address",
          "name": "approver",
          "type": "address"
        }
      ],
      "name": "ERC20InvalidApprover",
      "type": "error"
    },
    {
      "inputs": [
        {
          "internalType": "address",
          "name": "receiver",
          "type": "address"
        }
      ],
      "name": "ERC20InvalidReceiver",
      "type": "error"
    },
    {
      "inputs": [
        {
          "internalType": "address",
          "name": "sender",
          "type": "address"
        }
      ],
      "name": "ERC20InvalidSender",
      "type": "error"
    },
    {
      "inputs": [
        {
          "internalType": "address",
          "name": "spender",
          "type": "address"
        }
      ],
      "name": "ERC20InvalidSpender",
      "type": "error"
    },
    {
      "inputs": [
        {
          "internalType": "address",
          "name": "_caller",
          "type": "address"
        }
      ],
      "name": "NotOperator",
      "type": "error"
    },
    {
      "inputs": [
        {
          "internalType": "address",
          "name": "_caller",
          "type": "address"
        }
      ],
      "name": "NotOwner",
      "type": "error"
    },
    {
      "anonymous": false,
      "inputs": [
        {
          "indexed": true,
          "internalType": "address",
          "name": "owner",
          "type": "address"
        },
        {
          "indexed": true,
          "internalType": "address",
          "name": "spender",
          "type": "address"
        },
        {
          "indexed": false,
          "internalType": "uint256",
          "name": "value",
          "type": "uint256"
        }
      ],
      "name": "Approval",
      "type": "event"
    },
    {
      "anonymous": false,
      "inputs": [
        {
          "indexed": true,
          "internalType": "address",
          "name": "owner",
          "type": "address"
        },
        {
          "indexed": true,
          "internalType": "address",
          "name": "_newOwner",
          "type": "address"
        }
      ],
      "name": "OwnerChanged",
      "type": "event"
    },
    {
      "anonymous": false,
      "inputs": [
        {
          "indexed": true,
          "internalType": "address",
          "name": "from",
          "type": "address"
        },
        {
          "indexed": true,
          "internalType": "address",
          "name": "to",
          "type": "address"
        },
        {
          "indexed": false,
          "internalType": "uint256",
          "name": "value",
          "type": "uint256"
        }
      ],
      "name": "Transfer",
      "type": "event"
    },
    {
      "inputs": [
        {
          "internalType": "address",
          "name": "owner",
          "type": "address"
        },
        {
          "internalType": "address",
          "name": "spender",
          "type": "address"
        }
      ],
      "name": "allowance",
      "outputs": [
        {
          "internalType": "uint256",
          "name": "",
          "type": "uint256"
        }
      ],
      "stateMutability": "view",
      "type": "function"
    },
    {
      "inputs": [
        {
          "internalType": "address",
          "name": "spender",
          "type": "address"
        },
        {
          "internalType": "uint256",
          "name": "value",
          "type": "uint256"
        }
      ],
      "name": "approve",
      "outputs": [
        {
          "internalType": "bool",
          "name": "",
          "type": "bool"
        }
      ],
      "stateMutability": "nonpayable",
      "type": "function"
    },
    {
      "inputs": [
        {
          "internalType": "address",
          "name": "account",
          "type": "address"
        }
      ],
      "name": "balanceOf",
      "outputs": [
        {
          "internalType": "uint256",
          "name": "",
          "type": "uint256"
        }
      ],
      "stateMutability": "view",
      "type": "function"
    },
    {
      "inputs": [
        {
          "internalType": "address",
          "name": "_from",
          "type": "address"
        },
        {
          "internalType": "uint256",
          "name": "_amount",
          "type": "uint256"
        }
      ],
      "name": "burn",
      "outputs": [],
      "stateMutability": "nonpayable",
      "type": "function"
    },
    {
      "inputs": [],
      "name": "decimals",
      "outputs": [
        {
          "internalType": "uint8",
          "name": "",
          "type": "uint8"
        }
      ],
      "stateMutability": "view",
      "type": "function"
    },
    {
      "inputs": [
        {
          "internalType": "address",
          "name": "_to",
          "type": "address"
        },
        {
          "internalType": "uint256",
          "name": "_amount",
          "type": "uint256"
        }
      ],
      "name": "mint",
      "outputs": [],
      "stateMutability": "nonpayable",
      "type": "function"
    },
    {
      "inputs": [],
      "name": "name",
      "outputs": [
        {
          "internalType": "string",
          "name": "",
          "type": "string"
        }
      ],
      "stateMutability": "view",
      "type": "function"
    },
    {
      "inputs": [],
      "name": "operator",
      "outputs": [
        {
          "internalType": "address",
          "name": "",
          "type": "address"
        }
      ],
      "stateMutability": "view",
      "type": "function"
    },
    {
      "inputs": [],
      "name": "owner",
      "outputs": [
        {
          "internalType": "address",
          "name": "",
          "type": "address"
        }
      ],
      "stateMutability": "view",
      "type": "function"
    },
    {
      "inputs": [
        {
          "internalType": "address",
          "name": "_operator",
          "type": "address"
        }
      ],
      "name": "setOperator",
      "outputs": [],
      "stateMutability": "nonpayable",
      "type": "function"
    },
    {
      "inputs": [
        {
          "internalType": "address",
          "name": "_owner",
          "type": "address"
        }
      ],
      "name": "setOwner",
      "outputs": [],
      "stateMutability": "nonpayable",
      "type": "function"
    },
    {
      "inputs": [],
      "name": "symbol",
      "outputs": [
        {
          "internalType": "string",
          "name": "",
          "type": "string"
        }
      ],
      "stateMutability": "view",
      "type": "function"
    },
    {
      "inputs": [],
      "name": "totalSupply",
      "outputs": [
        {
          "internalType": "uint256",
          "name": "",
          "type": "uint256"
        }
      ],
      "stateMutability": "view",
      "type": "function"
    },
    {
      "inputs": [
        {
          "internalType": "address",
          "name": "to",
          "type": "address"
        },
        {
          "internalType": "uint256",
          "name": "value",
          "type": "uint256"
        }
      ],
      "name": "transfer",
      "outputs": [
        {
          "internalType": "bool",
          "name": "",
          "type": "bool"
        }
      ],
      "stateMutability": "nonpayable",
      "type": "function"
    },
    {
      "inputs": [
        {
          "internalType": "address",
          "name": "from",
          "type": "address"
        },
        {
          "internalType": "address",
          "name": "to",
          "type": "address"
        },
        {
          "internalType": "uint256",
          "name": "value",
          "type": "uint256"
        }
      ],
      "name": "transferFrom",
      "outputs": [
        {
          "internalType": "bool",
          "name": "",
          "type": "bool"
        }
      ],
      "stateMutability": "nonpayable",
      "type": "function"
    }
  ],
  "transactionHash": "0x198843461a3b53a6fcc849dbdcd667e4811d32e736706cfba804df9329996348",
  "args": [],
  "numDeployments": 1,
  "solcInputHash": "bf3ace87e0080de70e4c37f388c527e3",
  "bytecode": "0x60806040523480156200001157600080fd5b506040518060400160405280600681526020016526aa37b5b2b760d11b815250604051806040016040528060038152602001624d4d4d60e81b81525081600390816200005e9190620002e9565b5060046200006d8282620002e9565b5050600580546001600160a01b031916339081179091556040519091506000907fb532073b38c83145e3e5135377a08bf9aab55bc0fd7c1179cd4fb995d2a5159c908290a3620000c9336a084595161401484a000000620000cf565b620003dd565b6001600160a01b038216620000ff5760405163ec442f0560e01b8152600060048201526024015b60405180910390fd5b6200010d6000838362000111565b5050565b6001600160a01b03831662000140578060026000828254620001349190620003b5565b90915550620001b49050565b6001600160a01b03831660009081526020819052604090205481811015620001955760405163391434e360e21b81526001600160a01b03851660048201526024810182905260448101839052606401620000f6565b6001600160a01b03841660009081526020819052604090209082900390555b6001600160a01b038216620001d257600280548290039055620001f1565b6001600160a01b03821660009081526020819052604090208054820190555b816001600160a01b0316836001600160a01b03167fddf252ad1be2c89b69c2b068fc378daa952ba7f163c4a11628f55a4df523b3ef836040516200023791815260200190565b60405180910390a3505050565b634e487b7160e01b600052604160045260246000fd5b600181811c908216806200026f57607f821691505b6020821081036200029057634e487b7160e01b600052602260045260246000fd5b50919050565b601f821115620002e457600081815260208120601f850160051c81016020861015620002bf5750805b601f850160051c820191505b81811015620002e057828155600101620002cb565b5050505b505050565b81516001600160401b0381111562000305576200030562000244565b6200031d816200031684546200025a565b8462000296565b602080601f8311600181146200035557600084156200033c5750858301515b600019600386901b1c1916600185901b178555620002e0565b600085815260208120601f198616915b82811015620003865788860151825594840194600190910190840162000365565b5085821015620003a55787850151600019600388901b60f8161c191681555b5050505050600190811b01905550565b80820180821115620003d757634e487b7160e01b600052601160045260246000fd5b92915050565b6109ea80620003ed6000396000f3fe608060405234801561001057600080fd5b50600436106100f55760003560e01c8063570ca735116100975780639dc29fac116100665780639dc29fac14610206578063a9059cbb14610219578063b3ab15fb1461022c578063dd62ed3e1461023f57600080fd5b8063570ca7351461019757806370a08231146101c25780638da5cb5b146101eb57806395d89b41146101fe57600080fd5b806318160ddd116100d357806318160ddd1461015057806323b872dd14610162578063313ce5671461017557806340c10f191461018457600080fd5b806306fdde03146100fa578063095ea7b31461011857806313af40351461013b575b600080fd5b610102610278565b60405161010f919061083e565b60405180910390f35b61012b6101263660046108a8565b61030a565b604051901515815260200161010f565b61014e6101493660046108d2565b610324565b005b6002545b60405190815260200161010f565b61012b6101703660046108f4565b6103bf565b6040516012815260200161010f565b61014e6101923660046108a8565b6103e3565b6006546101aa906001600160a01b031681565b6040516001600160a01b03909116815260200161010f565b6101546101d03660046108d2565b6001600160a01b031660009081526020819052604090205490565b6005546101aa906001600160a01b031681565b610102610435565b61014e6102143660046108a8565b610444565b61012b6102273660046108a8565b61047f565b61014e61023a3660046108d2565b61048d565b61015461024d366004610930565b6001600160a01b03918216600090815260016020908152604080832093909416825291909152205490565b60606003805461028790610963565b80601f01602080910402602001604051908101604052809291908181526020018280546102b390610963565b80156103005780601f106102d557610100808354040283529160200191610300565b820191906000526020600020905b8154815290600101906020018083116102e357829003601f168201915b5050505050905090565b6000336103188185856104e9565b60019150505b92915050565b6005546001600160a01b031633146103565760405163245aecd360e01b81523360048201526024015b60405180910390fd5b6005546040516001600160a01b038084169216907fb532073b38c83145e3e5135377a08bf9aab55bc0fd7c1179cd4fb995d2a5159c90600090a36005805473ffffffffffffffffffffffffffffffffffffffff19166001600160a01b0392909216919091179055565b6000336103cd8582856104f6565b6103d8858585610574565b506001949350505050565b6005546001600160a01b031633146104105760405163245aecd360e01b815233600482015260240161034d565b600061042482670de0b6b3a76400006109b3565b905061043083826105d3565b505050565b60606004805461028790610963565b6006546001600160a01b0316331461047157604051633b63649d60e11b815233600482015260240161034d565b61047b8282610609565b5050565b600033610318818585610574565b6005546001600160a01b031633146104ba5760405163245aecd360e01b815233600482015260240161034d565b6006805473ffffffffffffffffffffffffffffffffffffffff19166001600160a01b0392909216919091179055565b610430838383600161063f565b6001600160a01b03838116600090815260016020908152604080832093861683529290522054600019811461056e578181101561055f57604051637dc7a0d960e11b81526001600160a01b0384166004820152602481018290526044810183905260640161034d565b61056e8484848403600061063f565b50505050565b6001600160a01b03831661059e57604051634b637e8f60e11b81526000600482015260240161034d565b6001600160a01b0382166105c85760405163ec442f0560e01b81526000600482015260240161034d565b610430838383610714565b6001600160a01b0382166105fd5760405163ec442f0560e01b81526000600482015260240161034d565b61047b60008383610714565b6001600160a01b03821661063357604051634b637e8f60e11b81526000600482015260240161034d565b61047b82600083610714565b6001600160a01b0384166106695760405163e602df0560e01b81526000600482015260240161034d565b6001600160a01b03831661069357604051634a1406b160e11b81526000600482015260240161034d565b6001600160a01b038085166000908152600160209081526040808320938716835292905220829055801561056e57826001600160a01b0316846001600160a01b03167f8c5be1e5ebec7d5bd14f71427d1e84f3dd0314c0f7b2291e5b200ac8c7c3b9258460405161070691815260200190565b60405180910390a350505050565b6001600160a01b03831661073f57806002600082825461073491906109ca565b909155506107b19050565b6001600160a01b038316600090815260208190526040902054818110156107925760405163391434e360e21b81526001600160a01b0385166004820152602481018290526044810183905260640161034d565b6001600160a01b03841660009081526020819052604090209082900390555b6001600160a01b0382166107cd576002805482900390556107ec565b6001600160a01b03821660009081526020819052604090208054820190555b816001600160a01b0316836001600160a01b03167fddf252ad1be2c89b69c2b068fc378daa952ba7f163c4a11628f55a4df523b3ef8360405161083191815260200190565b60405180910390a3505050565b600060208083528351808285015260005b8181101561086b5785810183015185820160400152820161084f565b506000604082860101526040601f19601f8301168501019250505092915050565b80356001600160a01b03811681146108a357600080fd5b919050565b600080604083850312156108bb57600080fd5b6108c48361088c565b946020939093013593505050565b6000602082840312156108e457600080fd5b6108ed8261088c565b9392505050565b60008060006060848603121561090957600080fd5b6109128461088c565b92506109206020850161088c565b9150604084013590509250925092565b6000806040838503121561094357600080fd5b61094c8361088c565b915061095a6020840161088c565b90509250929050565b600181811c9082168061097757607f821691505b60208210810361099757634e487b7160e01b600052602260045260246000fd5b50919050565b634e487b7160e01b600052601160045260246000fd5b808202811582820484141761031e5761031e61099d565b8082018082111561031e5761031e61099d56fea164736f6c6343000814000a",
  "devdoc": {
    "custom:advice": "Consider implementing a more robust access control mechanism, like OZ's",
    "custom:version": "0.0.1",
    "errors": {
      "ERC20InsufficientAllowance(address,uint256,uint256)": [
        {
          "details": "Indicates a failure with the `spender`s `allowance`. Used in transfers.",
          "params": {
            "allowance": "Amount of tokens a `spender` is allowed to operate with.",
            "needed": "Minimum amount required to perform a transfer.",
            "spender": "Address that may be allowed to operate on tokens without being their owner."
          }
        }
      ],
      "ERC20InsufficientBalance(address,uint256,uint256)": [
        {
          "details": "Indicates an error related to the current `balance` of a `sender`. Used in transfers.",
          "params": {
            "balance": "Current balance for the interacting account.",
            "needed": "Minimum amount required to perform a transfer.",
            "sender": "Address whose tokens are being transferred."
          }
        }
      ],
      "ERC20InvalidApprover(address)": [
        {
          "details": "Indicates a failure with the `approver` of a token to be approved. Used in approvals.",
          "params": {
            "approver": "Address initiating an approval operation."
          }
        }
      ],
      "ERC20InvalidReceiver(address)": [
        {
          "details": "Indicates a failure with the token `receiver`. Used in transfers.",
          "params": {
            "receiver": "Address to which tokens are being transferred."
          }
        }
      ],
      "ERC20InvalidSender(address)": [
        {
          "details": "Indicates a failure with the token `sender`. Used in transfers.",
          "params": {
            "sender": "Address whose tokens are being transferred."
          }
        }
      ],
      "ERC20InvalidSpender(address)": [
        {
          "details": "Indicates a failure with the `spender` to be approved. Used in approvals.",
          "params": {
            "spender": "Address that may be allowed to operate on tokens without being their owner."
          }
        }
      ]
    },
    "events": {
      "Approval(address,address,uint256)": {
        "params": {
          "value": "is the new allowance"
        }
      },
      "Transfer(address,address,uint256)": {
        "details": "`value` may be zero"
      }
    },
    "kind": "dev",
    "methods": {
      "allowance(address,address)": {
        "details": "See {IERC20-allowance}."
      },
      "approve(address,uint256)": {
        "details": "See {IERC20-approve}. NOTE: If `value` is the maximum `uint256`, the allowance is not updated on `transferFrom`. This is semantically equivalent to an infinite approval. Requirements: - `spender` cannot be the zero address."
      },
      "balanceOf(address)": {
        "details": "See {IERC20-balanceOf}."
      },
      "decimals()": {
        "details": "Returns the number of decimals used to get its user representation. For example, if `decimals` equals `2`, a balance of `505` tokens should be displayed to a user as `5.05` (`505 / 10 ** 2`). Tokens usually opt for a value of 18, imitating the relationship between Ether and Wei. This is the default value returned by this function, unless it's overridden. NOTE: This information is only used for _display_ purposes: it in no way affects any of the arithmetic of the contract, including {IERC20-balanceOf} and {IERC20-transfer}."
      },
      "name()": {
        "details": "Returns the name of the token."
      },
      "symbol()": {
        "details": "Returns the symbol of the token, usually a shorter version of the name."
      },
      "totalSupply()": {
        "details": "See {IERC20-totalSupply}."
      },
      "transfer(address,uint256)": {
        "details": "See {IERC20-transfer}. Requirements: - `to` cannot be the zero address. - the caller must have a balance of at least `value`."
      },
      "transferFrom(address,address,uint256)": {
        "details": "See {IERC20-transferFrom}. Emits an {Approval} event indicating the updated allowance. This is not required by the EIP. See the note at the beginning of {ERC20}. NOTE: Does not update the allowance if the current allowance is the maximum `uint256`. Requirements: - `from` and `to` cannot be the zero address. - `from` must have a balance of at least `value`. - the caller must have allowance for ``from``'s tokens of at least `value`."
      }
    },
    "title": "MToken",
    "version": 1
  },
  "userdoc": {
    "errors": {
      "NotOperator(address)": [
        {
          "notice": "Triggers when the function is not called by the protocol"
        }
      ],
      "NotOwner(address)": [
        {
          "notice": "Triggers when the function is not called by the owner"
        }
      ]
    },
    "events": {
      "Approval(address,address,uint256)": {
        "notice": "Emitted when the allowance of a @param spender for an @param owner is"
      },
      "OwnerChanged(address,address)": {
        "notice": "Emits when the owner address is changed"
      },
      "Transfer(address,address,uint256)": {
        "notice": "Emmited when @param value tokens are moved @param from to @param to account"
      }
    },
    "kind": "user",
    "methods": {
      "burn(address,uint256)": {
        "notice": "Burns @param _amount of tokens from @param _from"
      },
      "constructor": {
        "notice": "Contract constructor"
      },
      "mint(address,uint256)": {
        "notice": "Mints token @param _amount to @param _to address"
      },
      "operator()": {
        "notice": "The address of the operator"
      },
      "owner()": {
        "notice": "The address of the owner"
      },
      "setOperator(address)": {
        "notice": "Sets the token's operator to @param _operator"
      },
      "setOwner(address)": {
        "notice": "Sets the token's owner to a new @param owner_ address"
      }
    },
    "notice": "The interest-bearing token associated with the protocol",
    "version": 1
  },
  "storageLayout": {
    "storage": [
      {
        "astId": 5947,
        "contract": "src/contracts/domain/core/MToken.sol:MToken",
        "label": "_balances",
        "offset": 0,
        "slot": "0",
        "type": "t_mapping(t_address,t_uint256)"
      },
      {
        "astId": 5953,
        "contract": "src/contracts/domain/core/MToken.sol:MToken",
        "label": "_allowances",
        "offset": 0,
        "slot": "1",
        "type": "t_mapping(t_address,t_mapping(t_address,t_uint256))"
      },
      {
        "astId": 5955,
        "contract": "src/contracts/domain/core/MToken.sol:MToken",
        "label": "_totalSupply",
        "offset": 0,
        "slot": "2",
        "type": "t_uint256"
      },
      {
        "astId": 5957,
        "contract": "src/contracts/domain/core/MToken.sol:MToken",
        "label": "_name",
        "offset": 0,
        "slot": "3",
        "type": "t_string_storage"
      },
      {
        "astId": 5959,
        "contract": "src/contracts/domain/core/MToken.sol:MToken",
        "label": "_symbol",
        "offset": 0,
        "slot": "4",
        "type": "t_string_storage"
      },
      {
        "astId": 2445,
        "contract": "src/contracts/domain/core/MToken.sol:MToken",
        "label": "owner",
        "offset": 0,
        "slot": "5",
        "type": "t_address"
      },
      {
        "astId": 2448,
        "contract": "src/contracts/domain/core/MToken.sol:MToken",
        "label": "operator",
        "offset": 0,
        "slot": "6",
        "type": "t_address"
      }
    ],
    "types": {
      "t_address": {
        "encoding": "inplace",
        "label": "address",
        "numberOfBytes": "20"
      },
      "t_mapping(t_address,t_mapping(t_address,t_uint256))": {
        "encoding": "mapping",
        "key": "t_address",
        "label": "mapping(address => mapping(address => uint256))",
        "numberOfBytes": "32",
        "value": "t_mapping(t_address,t_uint256)"
      },
      "t_mapping(t_address,t_uint256)": {
        "encoding": "mapping",
        "key": "t_address",
        "label": "mapping(address => uint256)",
        "numberOfBytes": "32",
        "value": "t_uint256"
      },
      "t_string_storage": {
        "encoding": "bytes",
        "label": "string",
        "numberOfBytes": "32"
      },
      "t_uint256": {
        "encoding": "inplace",
        "label": "uint256",
        "numberOfBytes": "32"
      }
    }
  }
}