{
  "address": "0x7d8d52DB01C53c1CDFa169c99822d203573eDBb7",
  "abi": [
    {
      "inputs": [
        {
          "internalType": "address",
          "name": "target",
          "type": "address"
        }
      ],
      "name": "AddressEmptyCode",
      "type": "error"
    },
    {
      "inputs": [
        {
          "internalType": "address",
          "name": "account",
          "type": "address"
        }
      ],
      "name": "AddressInsufficientBalance",
      "type": "error"
    },
    {
      "inputs": [
        {
          "internalType": "address",
          "name": "_caller",
          "type": "address"
        }
      ],
      "name": "AmountShouldBePositive",
      "type": "error"
    },
    {
      "inputs": [],
      "name": "CollateralMismatch",
      "type": "error"
    },
    {
      "inputs": [],
      "name": "CollateralNotInUse",
      "type": "error"
    },
    {
      "inputs": [],
      "name": "Error404",
      "type": "error"
    },
    {
      "inputs": [],
      "name": "FailedInnerCall",
      "type": "error"
    },
    {
      "inputs": [],
      "name": "InsufficientTokenAmount",
      "type": "error"
    },
    {
      "inputs": [],
      "name": "ReentrantCall",
      "type": "error"
    },
    {
      "inputs": [
        {
          "internalType": "address",
          "name": "token",
          "type": "address"
        }
      ],
      "name": "SafeERC20FailedOperation",
      "type": "error"
    },
    {
      "anonymous": false,
      "inputs": [
        {
          "indexed": false,
          "internalType": "address",
          "name": "borrowedToken",
          "type": "address"
        },
        {
          "indexed": false,
          "internalType": "uint256",
          "name": "_repayedAmount",
          "type": "uint256"
        },
        {
          "indexed": true,
          "internalType": "address",
          "name": "_borrower",
          "type": "address"
        }
      ],
      "name": "Repay",
      "type": "event"
    },
    {
      "inputs": [
        {
          "internalType": "address",
          "name": "_collateralAddress",
          "type": "address"
        },
        {
          "internalType": "address",
          "name": "tokenAddress",
          "type": "address"
        },
        {
          "internalType": "uint256",
          "name": "_tokenAmount",
          "type": "uint256"
        }
      ],
      "name": "repay",
      "outputs": [],
      "stateMutability": "nonpayable",
      "type": "function"
    }
  ],
  "transactionHash": "0xc940aa1a118f7e7afa171bf5006a35be0f8d42109bdbc4012bf81c1de5c165e5",
  "args": [],
  "numDeployments": 1,
  "solcInputHash": "bf3ace87e0080de70e4c37f388c527e3",
  "bytecode": "0x608060405234801561001057600080fd5b50610c59806100206000396000f3fe608060405234801561001057600080fd5b506004361061002b5760003560e01c80631da649cf14610030575b600080fd5b61004361003e3660046109d6565b610045565b005b3360009081527fb63cbb77d85e98261667d5fc207901bcdd6950bf6d20d991f2e751c25e9709ce602090815260408083206001600160a01b0380871685529252909120600201548491849161010090048116908316146100b85760405163128abb3560e21b815260040160405180910390fd5b3360009081527fb63cbb77d85e98261667d5fc207901bcdd6950bf6d20d991f2e751c25e9709cc602090815260408083206001600160a01b038616845290915290206002015462010000900460ff1661012457604051636bf4e15960e01b815260040160405180910390fd5b828060000361014d5760405163f9a7ae8760e01b81523360048201526024015b60405180910390fd5b60027fdbfac48fe43e706cd186aabbc9bf037f2ab712c873b1d76438c57a9d362adf99540361018f576040516306fda65d60e31b815260040160405180910390fd5b60027fdbfac48fe43e706cd186aabbc9bf037f2ab712c873b1d76438c57a9d362adf99556000806101e17fb63cbb77d85e98261667d5fc207901bcdd6950bf6d20d991f2e751c25e9709ca888861029f565b90925090506101fb6001600160a01b0388163330846104d1565b604080516001600160a01b03891681526020810183905233917f208928674d844f1873d826482474b6f0e021e4592c0384574f00e016d90d979b910160405180910390a261026b7fb63cbb77d85e98261667d5fc207901bcdd6950bf6d20d991f2e751c25e9709ca898985610546565b505060016102967fdbfac48fe43e706cd186aabbc9bf037f2ab712c873b1d76438c57a9d362adf9990565b55505050505050565b3360009081526004808501602090815260408084206001600160a01b03878116808752918452828620835160a0810185528154808252600183015482880152600283015460ff8116151583880152610100900490931660608201526003909101546080820152835163313ce56760e01b815293518796919592948a948894909363313ce56793838201939091908290030181865afa158015610345573d6000803e3d6000fd5b505050506040513d601f19601f820116820180604052508101906103699190610a12565b9050828711610378578661037a565b825b9550600061038982600a610b2f565b6103939088610b3e565b6020868101516001600160a01b038c166000908152918d905260408220549293509162010000900461ffff1690620151806103ce8442610b55565b6103d89190610b68565b905060008082116103ea5760016103ec565b815b9050600061271061040161ffff861688610b3e565b61040b9190610b68565b9050600061016d61041c8385610b3e565b6104269190610b68565b90506104328188610b8a565b6040516370a0823160e01b8152336004820152909c508c906001600160a01b038b16906370a0823190602401602060405180830381865afa15801561047b573d6000803e3d6000fd5b505050506040513d601f19601f8201168201806040525081019061049f9190610b9d565b10156104be57604051631762402160e11b815260040160405180910390fd5b5050505050505050505050935093915050565b604080516001600160a01b0385811660248301528416604482015260648082018490528251808303909101815260849091019091526020810180517bffffffffffffffffffffffffffffffffffffffffffffffffffffffff166323b872dd60e01b17905261054090859061065b565b50505050565b33600090815260048501602090815260408083206001600160a01b0386168452909152902080548083036106395733600081815260048801602090815260408083206001600160a01b038916845282528083208381556001810184905560028101805474ffffffffffffffffffffffffffffffffffffffffff19169055600301839055928252600589019052206105dd90856106c3565b33600090815260058701602052604081205490036106025761060260068701336106c3565b3360009081526002808801602090815260408084206001600160a01b038a16855290915290912001805462ff000019169055610653565b8282600001600082825461064d9190610b55565b90915550505b505050505050565b60006106706001600160a01b0384168361081c565b905080516000141580156106955750808060200190518101906106939190610bb6565b155b156106be57604051635274afe760e01b81526001600160a01b0384166004820152602401610144565b505050565b60006107288380548060200260200160405190810160405280929190818152602001828054801561071d57602002820191906000526020600020905b81546001600160a01b031681526001909101906020018083116106ff575b505050505083610833565b9050806101940361074c57604051636b4e55dd60e11b815260040160405180910390fd5b825460009061075d90600190610b55565b90508082146107d75783818154811061077857610778610bd8565b9060005260206000200160009054906101000a90046001600160a01b03168483815481106107a8576107a8610bd8565b9060005260206000200160006101000a8154816001600160a01b0302191690836001600160a01b031602179055505b838054806107e7576107e7610bee565b6000828152602090208101600019908101805473ffffffffffffffffffffffffffffffffffffffff1916905501905550505050565b606061082a83836000610896565b90505b92915050565b81516000905b8082101561088b57826001600160a01b031684838151811061085d5761085d610bd8565b60200260200101516001600160a01b031603610879575061082d565b8161088381610c04565b925050610839565b506101949392505050565b6060814710156108bb5760405163cd78605960e01b8152306004820152602401610144565b600080856001600160a01b031684866040516108d79190610c1d565b60006040518083038185875af1925050503d8060008114610914576040519150601f19603f3d011682016040523d82523d6000602084013e610919565b606091505b5091509150610929868383610935565b925050505b9392505050565b60608261094a5761094582610991565b61092e565b815115801561096157506001600160a01b0384163b155b1561098a57604051639996b31560e01b81526001600160a01b0385166004820152602401610144565b508061092e565b8051156109a15780518082602001fd5b604051630a12f52160e11b815260040160405180910390fd5b80356001600160a01b03811681146109d157600080fd5b919050565b6000806000606084860312156109eb57600080fd5b6109f4846109ba565b9250610a02602085016109ba565b9150604084013590509250925092565b600060208284031215610a2457600080fd5b815160ff8116811461092e57600080fd5b634e487b7160e01b600052601160045260246000fd5b600181815b80851115610a86578160001904821115610a6c57610a6c610a35565b80851615610a7957918102915b93841c9390800290610a50565b509250929050565b600082610a9d5750600161082d565b81610aaa5750600061082d565b8160018114610ac05760028114610aca57610ae6565b600191505061082d565b60ff841115610adb57610adb610a35565b50506001821b61082d565b5060208310610133831016604e8410600b8410161715610b09575081810a61082d565b610b138383610a4b565b8060001904821115610b2757610b27610a35565b029392505050565b600061082a60ff841683610a8e565b808202811582820484141761082d5761082d610a35565b8181038181111561082d5761082d610a35565b600082610b8557634e487b7160e01b600052601260045260246000fd5b500490565b8082018082111561082d5761082d610a35565b600060208284031215610baf57600080fd5b5051919050565b600060208284031215610bc857600080fd5b8151801515811461092e57600080fd5b634e487b7160e01b600052603260045260246000fd5b634e487b7160e01b600052603160045260246000fd5b600060018201610c1657610c16610a35565b5060010190565b6000825160005b81811015610c3e5760208186018101518583015201610c24565b50600092019182525091905056fea164736f6c6343000814000a",
  "devdoc": {
    "custom:version": "0.0.1",
    "errors": {
      "AddressEmptyCode(address)": [
        {
          "details": "There's no code at `target` (it is not a contract)."
        }
      ],
      "AddressInsufficientBalance(address)": [
        {
          "details": "The ETH balance of the account is not enough to perform the operation."
        }
      ],
      "FailedInnerCall()": [
        {
          "details": "A call to an address target failed. The target may have reverted."
        }
      ],
      "SafeERC20FailedOperation(address)": [
        {
          "details": "An operation with an ERC20 token failed."
        }
      ]
    },
    "kind": "dev",
    "methods": {
      "repay(address,address,uint256)": {
        "custom:exec": "Checks -> calculation library call -> transfer -> internal state changes",
        "custom:security": "`_tokenAmount` should be properly handled in the front-end; whole number",
        "details": "In the front-end  ensure correct allowance handling",
        "params": {
          "_collateralAddress": "The address of the used collateral token",
          "_tokenAmount": "The borrowed amount",
          "tokenAddress": "The borrowed token address"
        }
      }
    },
    "title": "RepayFacet",
    "version": 1
  },
  "userdoc": {
    "events": {
      "Repay(address,uint256,address)": {
        "notice": "Emitted on a successful repayment to the protocol"
      }
    },
    "kind": "user",
    "methods": {
      "repay(address,address,uint256)": {
        "notice": "Repays a borrow"
      }
    },
    "version": 1
  },
  "storageLayout": {
    "storage": [],
    "types": null
  }
}