{
  "address": "0x30c2FC007867CcaAe7083a86f208Accc2DD3792d",
  "abi": [
    {
      "inputs": [
        {
          "internalType": "uint80",
          "name": "roundId",
          "type": "uint80"
        },
        {
          "internalType": "int256",
          "name": "answer",
          "type": "int256"
        }
      ],
      "name": "AnswerShouldBePositiveNum",
      "type": "error"
    },
    {
      "inputs": [
        {
          "internalType": "uint80",
          "name": "roundId",
          "type": "uint80"
        },
        {
          "internalType": "uint256",
          "name": "updatedAt",
          "type": "uint256"
        }
      ],
      "name": "InvalidTime",
      "type": "error"
    },
    {
      "inputs": [
        {
          "internalType": "contract IAggregatorV3",
          "name": "dataFeed",
          "type": "address"
        }
      ],
      "name": "OracleNotAvailable",
      "type": "error"
    },
    {
      "inputs": [
        {
          "internalType": "uint80",
          "name": "roundId",
          "type": "uint80"
        }
      ],
      "name": "StalePrice",
      "type": "error"
    },
    {
      "inputs": [
        {
          "internalType": "address",
          "name": "_caller",
          "type": "address"
        },
        {
          "internalType": "address",
          "name": "_tokenAddress",
          "type": "address"
        }
      ],
      "name": "UI__TokenNotAllowed",
      "type": "error"
    },
    {
      "inputs": [
        {
          "internalType": "address",
          "name": "_accountAddress",
          "type": "address"
        }
      ],
      "name": "getAccountData",
      "outputs": [
        {
          "components": [
            {
              "internalType": "address[]",
              "name": "stakedTokens",
              "type": "address[]"
            },
            {
              "internalType": "address[]",
              "name": "borrowedTokens",
              "type": "address[]"
            }
          ],
          "internalType": "struct LibUI.AccountData",
          "name": "accountData",
          "type": "tuple"
        }
      ],
      "stateMutability": "view",
      "type": "function"
    },
    {
      "inputs": [],
      "name": "getAllBorrowers",
      "outputs": [
        {
          "internalType": "address[]",
          "name": "allBorrowers",
          "type": "address[]"
        }
      ],
      "stateMutability": "view",
      "type": "function"
    },
    {
      "inputs": [
        {
          "internalType": "address",
          "name": "_account",
          "type": "address"
        }
      ],
      "name": "getBorrowedTokens",
      "outputs": [
        {
          "components": [
            {
              "internalType": "uint256",
              "name": "amountBorrowed",
              "type": "uint256"
            },
            {
              "internalType": "uint256",
              "name": "startAccumulatingDay",
              "type": "uint256"
            },
            {
              "internalType": "string",
              "name": "name",
              "type": "string"
            },
            {
              "internalType": "address",
              "name": "tokenAddress",
              "type": "address"
            },
            {
              "internalType": "address",
              "name": "collateralAddress",
              "type": "address"
            },
            {
              "internalType": "uint256",
              "name": "collateralAmount",
              "type": "uint256"
            }
          ],
          "internalType": "struct LibUI.BorrowedTokenData[]",
          "name": "borrowedTokensBatch",
          "type": "tuple[]"
        }
      ],
      "stateMutability": "view",
      "type": "function"
    },
    {
      "inputs": [
        {
          "internalType": "address",
          "name": "_collateralAddress",
          "type": "address"
        },
        {
          "internalType": "uint256",
          "name": "_collateralAmount",
          "type": "uint256"
        }
      ],
      "name": "getMaxUsdToBorrow",
      "outputs": [
        {
          "internalType": "uint256",
          "name": "maxUsdToBorrow",
          "type": "uint256"
        }
      ],
      "stateMutability": "view",
      "type": "function"
    },
    {
      "inputs": [],
      "name": "getProtocolTokens",
      "outputs": [
        {
          "components": [
            {
              "internalType": "address",
              "name": "tokenAddress",
              "type": "address"
            },
            {
              "internalType": "uint16",
              "name": "stakeStableRate",
              "type": "uint16"
            },
            {
              "internalType": "uint16",
              "name": "borrowStableRate",
              "type": "uint16"
            },
            {
              "internalType": "uint16",
              "name": "ltv",
              "type": "uint16"
            },
            {
              "internalType": "uint16",
              "name": "liquidationThreshold",
              "type": "uint16"
            },
            {
              "internalType": "string",
              "name": "name",
              "type": "string"
            }
          ],
          "internalType": "struct LibUI.AllowedTokenData[]",
          "name": "allowedTokensBatch",
          "type": "tuple[]"
        },
        {
          "internalType": "address",
          "name": "mTokenAddress",
          "type": "address"
        }
      ],
      "stateMutability": "view",
      "type": "function"
    },
    {
      "inputs": [
        {
          "internalType": "address",
          "name": "_account",
          "type": "address"
        }
      ],
      "name": "getStakedTokens",
      "outputs": [
        {
          "components": [
            {
              "internalType": "uint256",
              "name": "amountStaked",
              "type": "uint256"
            },
            {
              "internalType": "uint256",
              "name": "startAccumulatingDay",
              "type": "uint256"
            },
            {
              "internalType": "address",
              "name": "tokenAddress",
              "type": "address"
            },
            {
              "internalType": "bool",
              "name": "isCollateralOn",
              "type": "bool"
            },
            {
              "internalType": "bool",
              "name": "isCollateralInUse",
              "type": "bool"
            },
            {
              "internalType": "string",
              "name": "name",
              "type": "string"
            }
          ],
          "internalType": "struct LibUI.StakedTokenData[]",
          "name": "stakedTokensBatch",
          "type": "tuple[]"
        }
      ],
      "stateMutability": "view",
      "type": "function"
    },
    {
      "inputs": [
        {
          "internalType": "address",
          "name": "_account",
          "type": "address"
        },
        {
          "internalType": "address",
          "name": "_collateralAddress",
          "type": "address"
        },
        {
          "internalType": "address",
          "name": "_borrowedTokenAddress",
          "type": "address"
        }
      ],
      "name": "isLiquidatable",
      "outputs": [
        {
          "internalType": "bool",
          "name": "result",
          "type": "bool"
        }
      ],
      "stateMutability": "view",
      "type": "function"
    }
  ],
  "transactionHash": "0x3128381eb7ada44d2a99e5114415f8b84ce2185fc1a1dcbacf1beb7cc6866b46",
  "args": [],
  "numDeployments": 1,
  "solcInputHash": "bf3ace87e0080de70e4c37f388c527e3",
  "bytecode": "0x608060405234801561001057600080fd5b5061170d806100206000396000f3fe608060405234801561001057600080fd5b506004361061007d5760003560e01c80636178bad61161005b5780636178bad6146100dd57806363c28db1146100fd57806373a050c91461011d578063ad8b34351461013357600080fd5b806302f8e9a31461008257806332abcdbe146100a85780635d78650e146100bd575b600080fd5b610095610090366004611046565b610156565b6040519081526020015b60405180910390f35b6100b0610169565b60405161009f9190611070565b6100d06100cb3660046110bd565b610178565b60405161009f919061111c565b6100f06100eb3660046110bd565b61019b565b60405161009f91906111ae565b61011061010b3660046110bd565b6101a6565b60405161009f919061125e565b6101256101b1565b60405161009f9291906112fc565b6101466101413660046113c9565b6101f6565b604051901515815260200161009f565b6000610162838361020b565b9392505050565b60606101736102e9565b905090565b6040805180820190915260608082526020820152610195826103a5565b92915050565b6060610195826104df565b60606101958261079a565b606060006101bd610a40565b91506101f07fdbfac48fe43e706cd186aabbc9bf037f2ab712c873b1d76438c57a9d362adf9a546001600160a01b031690565b90509091565b6000610203848484610ce8565b949350505050565b6001600160a01b03821660009081526000805160206116e1833981519152602052604081205468010000000000000000900460ff16610273576040516394ee780f60e01b81523360048201526001600160a01b03841660248201526044015b60405180910390fd5b600061028e6000805160206116e18339815191528585610df2565b6001600160a01b03851660009081526000805160206116e18339815191526020526040902054909150640100000000900461ffff1661271081830283810483148415176001166102dd57600080fd5b04909103949350505050565b606060006000805160206116e183398151915260060180548060200260200160405190810160405280929190818152602001828054801561035357602002820191906000526020600020905b81546001600160a01b03168152600190910190602001808311610335575b50505050509050805167ffffffffffffffff8111156103745761037461140c565b60405190808252806020026020018201604052801561039d578160200160208202803683370190505b509092915050565b604080518082019091526060808252602082015260405180604001604052806103d96000805160206116e183398151915290565b6001600160a01b038516600090815260039190910160209081526040918290208054835181840281018401909452808452909183018282801561044557602002820191906000526020600020905b81546001600160a01b03168152600190910190602001808311610427575b505050505081526020016104646000805160206116e183398151915290565b6001600160a01b03851660009081526005919091016020908152604091829020805483518184028101840190945280845290918301828280156104d057602002820191906000526020600020905b81546001600160a01b031681526001909101906020018083116104b2575b50505050508152509050919050565b6001600160a01b03811660009081527fb63cbb77d85e98261667d5fc207901bcdd6950bf6d20d991f2e751c25e9709cf6020908152604080832080548251818502810185019093528083526060949383018282801561056757602002820191906000526020600020905b81546001600160a01b03168152600190910190602001808311610549575b50508351939450839250505067ffffffffffffffff81111561058b5761058b61140c565b60405190808252806020026020018201604052801561060757816020015b6105f46040518060c0016040528060008152602001600081526020016060815260200160006001600160a01b0316815260200160006001600160a01b03168152602001600081525090565b8152602001906001900390816105a95790505b50925060005b8181101561079257600083828151811061062957610629611422565b60200260200101519050600061064a6000805160206116e183398151915290565b6001600160a01b038089166000908152600492830160209081526040808320878516808552908352818420825160a081018452815481526001820154818601908152600283015460ff8116151583870152610100900490971660608201526003909101546080820152825160c0810184528151815295519386019390935281516306fdde0360e01b8152825193975094959186019490936306fdde03938284019391929091908290030181865afa158015610709573d6000803e3d6000fd5b505050506040513d6000823e601f3d908101601f191682016040526107319190810190611438565b8152602001836001600160a01b0316815260200182606001516001600160a01b03168152602001826080015181525086848151811061077257610772611422565b60200260200101819052505050808061078a906114fb565b91505061060d565b505050919050565b6001600160a01b03811660009081527fb63cbb77d85e98261667d5fc207901bcdd6950bf6d20d991f2e751c25e9709cd6020908152604080832080548251818502810185019093528083526060949383018282801561082257602002820191906000526020600020905b81546001600160a01b03168152600190910190602001808311610804575b50508351939450839250505067ffffffffffffffff8111156108465761084661140c565b6040519080825280602002602001820160405280156108bd57816020015b6108aa6040518060c00160405280600081526020016000815260200160006001600160a01b03168152602001600015158152602001600015158152602001606081525090565b8152602001906001900390816108645790505b50925060005b818110156107925760008382815181106108df576108df611422565b6020026020010151905060006109006000805160206116e183398151915290565b6001600160a01b038089166000908152600292830160209081526040808320938716808452938252808320815160a08082018452825482526001830154828601908152929097015460ff80821615158386015261010082048116151560608085019182526201000090930490911615156080808501918252865160c0810188528551815295519786019790975284860189905290511515918401919091525115159382019390935281516306fdde0360e01b8152915192965094850193926306fdde03926004808401938290030181865afa1580156109e3573d6000803e3d6000fd5b505050506040513d6000823e601f3d908101601f19168201604052610a0b9190810190611438565b815250868481518110610a2057610a20611422565b602002602001018190525050508080610a38906114fb565b9150506108c3565b606060006000805160206116e1833981519152600101805480602002602001604051908101604052809291908181526020018280548015610aaa57602002820191906000526020600020905b81546001600160a01b03168152600190910190602001808311610a8c575b50508351939450839250505067ffffffffffffffff811115610ace57610ace61140c565b604051908082528060200260200182016040528015610b3057816020015b6040805160c081018252600080825260208083018290529282018190526060808301829052608083019190915260a08201528252600019909201910181610aec5790505b50925060005b81811015610ce2576000838281518110610b5257610b52611422565b602002602001015190506000610b736000805160206116e183398151915290565b6001600160a01b03808416600081815260209384526040808220815160e081018352815461ffff80821683526201000082048116838a0190815264010000000083048216848701908152660100000000000084048316606080870191825260ff68010000000000000000870416151560808089019190915269010000000000000000009096048c1660a080890191909152600190980154909b1660c080880191909152885190810189528a8152865185169c81019c909c52915183168b880152518216988a019890985296519096169587019590955281516306fdde0360e01b815291519496508501936306fdde03926004838101939192918290030181865afa158015610c85573d6000803e3d6000fd5b505050506040513d6000823e601f3d908101601f19168201604052610cad9190810190611438565b815250868481518110610cc257610cc2611422565b602002602001018190525050508080610cda906114fb565b915050610b36565b50505090565b6001600160a01b0383811660009081527fb63cbb77d85e98261667d5fc207901bcdd6950bf6d20d991f2e751c25e9709cc602090815260408083209386168352929052908120546000805160206116e18339815191529082610d4b838784610df2565b6001600160a01b0380891660009081526004860160209081526040808320938a16835292905290812054919250610d83858884610df2565b6001600160a01b038916600090815260208790526040812054919250660100000000000090910461ffff1690612710610dbc8684611514565b610dc6919061152b565b9050610dd360018261154d565b8311610de0576000610de3565b60015b9b9a5050505050505050505050565b6000806000610e018686610e2f565b9092509050610e1181600a611644565b610e1b8386611514565b610e25919061152b565b9695505050505050565b6001600160a01b03808216600090815260208490526040808220600101548151633fabe5a360e21b8152915192938493911691829163feaf968c9160048082019260a0929091908290030181865afa925050508015610eab575060408051601f3d908101601f19168201909252610ea89181019061166d565b60015b610ed357604051638681218760e01b81526001600160a01b038216600482015260240161026a565b6001841215610f0a57604051633843011160e21b815269ffffffffffffffffffff861660048201526024810185905260440161026a565b81600003610f4057604051636bd07e6160e01b815269ffffffffffffffffffff861660048201526024810183905260440161026a565b7fdbfac48fe43e706cd186aabbc9bf037f2ab712c873b1d76438c57a9d362adf9a5474010000000000000000000000000000000000000000900463ffffffff16610f8a834261154d565b1115610fb7576040516306741d7b60e11b815269ffffffffffffffffffff8616600482015260240161026a565b50919550505050806001600160a01b031663313ce5676040518163ffffffff1660e01b8152600401602060405180830381865afa158015610ffc573d6000803e3d6000fd5b505050506040513d601f19601f8201168201806040525081019061102091906116bd565b9150509250929050565b80356001600160a01b038116811461104157600080fd5b919050565b6000806040838503121561105957600080fd5b6110628361102a565b946020939093013593505050565b6020808252825182820181905260009190848201906040850190845b818110156110b15783516001600160a01b03168352928401929184019160010161108c565b50909695505050505050565b6000602082840312156110cf57600080fd5b6101628261102a565b600081518084526020808501945080840160005b838110156111115781516001600160a01b0316875295820195908201906001016110ec565b509495945050505050565b60208152600082516040602084015261113860608401826110d8565b90506020840151601f1984830301604085015261115582826110d8565b95945050505050565b60005b83811015611179578181015183820152602001611161565b50506000910152565b6000815180845261119a81602086016020860161115e565b601f01601f19169290920160200192915050565b60006020808301818452808551808352604092508286019150828160051b87010184880160005b8381101561125057603f19898403018552815160c081518552888201518986015287820151818987015261120b82870182611182565b6060848101516001600160a01b03908116918901919091526080808601519091169088015260a0938401519390960192909252505093860193908601906001016111d5565b509098975050505050505050565b60006020808301818452808551808352604092508286019150828160051b87010184880160005b8381101561125057888303603f190185528151805184528781015188850152868101516001600160a01b03168785015260608082015115159085015260808082015115159085015260a09081015160c0918501829052906112e881860183611182565b968901969450505090860190600101611285565b60006040808301818452808651808352606092508286019150828160051b8701016020808a0160005b848110156113a357898403605f19018652815180516001600160a01b031685528381015161ffff908116858701528982015181168a870152888201518116898701526080808301519091169086015260a09081015160c09186018290529061138f81870183611182565b978501979550505090820190600101611325565b50508196506113bc8189018a6001600160a01b03169052565b5050505050509392505050565b6000806000606084860312156113de57600080fd5b6113e78461102a565b92506113f56020850161102a565b91506114036040850161102a565b90509250925092565b634e487b7160e01b600052604160045260246000fd5b634e487b7160e01b600052603260045260246000fd5b60006020828403121561144a57600080fd5b815167ffffffffffffffff8082111561146257600080fd5b818401915084601f83011261147657600080fd5b8151818111156114885761148861140c565b604051601f8201601f19908116603f011681019083821181831017156114b0576114b061140c565b816040528281528760208487010111156114c957600080fd5b6114da83602083016020880161115e565b979650505050505050565b634e487b7160e01b600052601160045260246000fd5b60006001820161150d5761150d6114e5565b5060010190565b8082028115828204841417610195576101956114e5565b60008261154857634e487b7160e01b600052601260045260246000fd5b500490565b81810381811115610195576101956114e5565b600181815b8085111561159b578160001904821115611581576115816114e5565b8085161561158e57918102915b93841c9390800290611565565b509250929050565b6000826115b257506001610195565b816115bf57506000610195565b81600181146115d557600281146115df576115fb565b6001915050610195565b60ff8411156115f0576115f06114e5565b50506001821b610195565b5060208310610133831016604e8410600b841016171561161e575081810a610195565b6116288383611560565b806000190482111561163c5761163c6114e5565b029392505050565b600061016260ff8416836115a3565b805169ffffffffffffffffffff8116811461104157600080fd5b600080600080600060a0868803121561168557600080fd5b61168e86611653565b94506020860151935060408601519250606086015191506116b160808701611653565b90509295509295909350565b6000602082840312156116cf57600080fd5b815160ff8116811461016257600080fdfeb63cbb77d85e98261667d5fc207901bcdd6950bf6d20d991f2e751c25e9709caa164736f6c6343000814000a",
  "devdoc": {
    "custom:version": "0.0.1",
    "details": "Make changes depending on the front-end model. This implementation is conceptual",
    "kind": "dev",
    "methods": {
      "getMaxUsdToBorrow(address,uint256)": {
        "details": "`_collateralAmount` must be a whole number",
        "params": {
          "_collateralAmount": "values"
        }
      },
      "isLiquidatable(address,address,address)": {
        "returns": {
          "result": "`true` if it is, otherwise `false`"
        }
      }
    },
    "title": "UIDataFacet",
    "version": 1
  },
  "userdoc": {
    "kind": "user",
    "methods": {
      "getAccountData(address)": {
        "notice": "Gets relevant @param _account information. Returns it as @return data"
      },
      "getAllBorrowers()": {
        "notice": "Returns all borrowers in the protocol as @return allBorrowers"
      },
      "getBorrowedTokens(address)": {
        "notice": "Aggregated view of @param _account's borrowed tokens in @return borrowedTokensBatch"
      },
      "getMaxUsdToBorrow(address,uint256)": {
        "notice": "Returns the maximum amount in USD that can be borrowed based on @param _collateralAddress"
      },
      "getProtocolTokens()": {
        "notice": "Gets global-related data of the protocolAggregated view of the allowed tokens in @return allowedTokensBatch; in @return mTokenAddress  the address of the interest-bearing token"
      },
      "getStakedTokens(address)": {
        "notice": "Aggregated view of @param _account's staked tokens in @return stakedTokensBatch"
      },
      "isLiquidatable(address,address,address)": {
        "notice": "Checks if the @param _account is liquidatable based on @param _collateralAddress and @param _borrowedTokenAddress."
      }
    },
    "notice": "UI aggregated data",
    "version": 1
  },
  "storageLayout": {
    "storage": [],
    "types": null
  }
}