{
  "address": "0xb02467Cc764390Ac48a628979D35185d47F354Ae",
  "abi": [
    {
      "inputs": [
        {
          "internalType": "address",
          "name": "target",
          "type": "address"
        }
      ],
      "name": "AddressEmptyCode",
      "type": "error"
    },
    {
      "inputs": [
        {
          "internalType": "address",
          "name": "account",
          "type": "address"
        }
      ],
      "name": "AddressInsufficientBalance",
      "type": "error"
    },
    {
      "inputs": [
        {
          "internalType": "address",
          "name": "_caller",
          "type": "address"
        }
      ],
      "name": "AmountShouldBePositive",
      "type": "error"
    },
    {
      "inputs": [
        {
          "internalType": "uint80",
          "name": "roundId",
          "type": "uint80"
        },
        {
          "internalType": "int256",
          "name": "answer",
          "type": "int256"
        }
      ],
      "name": "AnswerShouldBePositiveNum",
      "type": "error"
    },
    {
      "inputs": [],
      "name": "CollateralCurrentlyInUse",
      "type": "error"
    },
    {
      "inputs": [],
      "name": "Error404",
      "type": "error"
    },
    {
      "inputs": [],
      "name": "FailedInnerCall",
      "type": "error"
    },
    {
      "inputs": [],
      "name": "InsufficientProtocolFunds",
      "type": "error"
    },
    {
      "inputs": [
        {
          "internalType": "uint80",
          "name": "roundId",
          "type": "uint80"
        },
        {
          "internalType": "uint256",
          "name": "updatedAt",
          "type": "uint256"
        }
      ],
      "name": "InvalidTime",
      "type": "error"
    },
    {
      "inputs": [
        {
          "internalType": "contract IAggregatorV3",
          "name": "dataFeed",
          "type": "address"
        }
      ],
      "name": "OracleNotAvailable",
      "type": "error"
    },
    {
      "inputs": [],
      "name": "ReentrantCall",
      "type": "error"
    },
    {
      "inputs": [
        {
          "internalType": "address",
          "name": "token",
          "type": "address"
        }
      ],
      "name": "SafeERC20FailedOperation",
      "type": "error"
    },
    {
      "inputs": [
        {
          "internalType": "uint80",
          "name": "roundId",
          "type": "uint80"
        }
      ],
      "name": "StalePrice",
      "type": "error"
    },
    {
      "inputs": [
        {
          "internalType": "address",
          "name": "_caller",
          "type": "address"
        },
        {
          "internalType": "address",
          "name": "_tokenAddress",
          "type": "address"
        }
      ],
      "name": "TokenNotStaked",
      "type": "error"
    },
    {
      "anonymous": false,
      "inputs": [
        {
          "indexed": false,
          "internalType": "address",
          "name": "token",
          "type": "address"
        },
        {
          "indexed": false,
          "internalType": "uint256",
          "name": "amount",
          "type": "uint256"
        },
        {
          "indexed": true,
          "internalType": "address",
          "name": "_depositor",
          "type": "address"
        }
      ],
      "name": "Withdraw",
      "type": "event"
    },
    {
      "inputs": [
        {
          "internalType": "address",
          "name": "tokenAddress",
          "type": "address"
        },
        {
          "internalType": "uint256",
          "name": "_tokenAmount",
          "type": "uint256"
        }
      ],
      "name": "withdraw",
      "outputs": [],
      "stateMutability": "nonpayable",
      "type": "function"
    }
  ],
  "transactionHash": "0xfaa3d8bc877137c952973b2aae20c025ab75119e4f0d44b75dd179248aa6a378",
  "args": [],
  "numDeployments": 1,
  "solcInputHash": "bf3ace87e0080de70e4c37f388c527e3",
  "bytecode": "0x608060405234801561001057600080fd5b50610f1b806100206000396000f3fe608060405234801561001057600080fd5b506004361061002b5760003560e01c8063f3fef3a314610030575b600080fd5b61004361003e366004610c2d565b610045565b005b3360009081527fb63cbb77d85e98261667d5fc207901bcdd6950bf6d20d991f2e751c25e9709cc602090815260408083206001600160a01b0386168452909152902060020154829060ff166100c3576040516302acc30360e31b81523360048201526001600160a01b03821660248201526044015b60405180910390fd5b3360009081527fb63cbb77d85e98261667d5fc207901bcdd6950bf6d20d991f2e751c25e9709cc602090815260408083206001600160a01b038516845290915290206002015462010000900460ff1615610130576040516302ffc65b60e01b815260040160405180910390fd5b81806000036101545760405163f9a7ae8760e01b81523360048201526024016100ba565b60027fdbfac48fe43e706cd186aabbc9bf037f2ab712c873b1d76438c57a9d362adf995403610196576040516306fda65d60e31b815260040160405180910390fd5b60027fdbfac48fe43e706cd186aabbc9bf037f2ab712c873b1d76438c57a9d362adf9955600080806101e97fb63cbb77d85e98261667d5fc207901bcdd6950bf6d20d991f2e751c25e9709ca8888610339565b9250925092506102167fdbfac48fe43e706cd186aabbc9bf037f2ab712c873b1d76438c57a9d362adf9990565b60010154604051632770a7eb60e21b8152336004820152602481018390526001600160a01b0390911690639dc29fac90604401600060405180830381600087803b15801561026357600080fd5b505af1158015610277573d6000803e3d6000fd5b505050506102ae87846102a77fb63cbb77d85e98261667d5fc207901bcdd6950bf6d20d991f2e751c25e9709ca90565b919061059a565b604080516001600160a01b03891681526020810184905233917f56c54ba9bd38d8fd62012e42c7ee564519b09763c426d331b3661b537ead19b2910160405180910390a26103066001600160a01b0388163384610640565b50505060016103327fdbfac48fe43e706cd186aabbc9bf037f2ab712c873b1d76438c57a9d362adf9990565b5550505050565b3360009081526002808501602090815260408084206001600160a01b038716808652908352818520825160a0810184528154808252600183015482870152919095015460ff8082161515878601526101008204811615156060880152620100009091041615156080860152825163313ce56760e01b8152925186958695909492938a938793919263313ce567926004808401938290030181865afa1580156103e5573d6000803e3d6000fd5b505050506040513d601f19601f820116820180604052508101906104099190610c65565b9050828811610418578761041a565b825b9650600061042982600a610d82565b6104339089610d91565b905084606001516104d4576001600160a01b038a16600090815260208c815260408220549087015161ffff909116919062015180906104729042610da8565b61047c9190610dbb565b9050600080821161048e576001610490565b815b905060006127106104a763ffffffff861687610d91565b6104b19190610dbb565b9050600061016d6104c28385610d91565b6104cc9190610dbb565b9b5050505050505b6104de8188610ddd565b6040516370a0823160e01b815230600482015290975087906001600160a01b038516906370a0823190602401602060405180830381865afa158015610527573d6000803e3d6000fd5b505050506040513d601f19601f8201168201806040525081019061054b9190610df0565b101561056a57604051632122027360e11b815260040160405180910390fd5b61057582600a610d82565b6105808c8c8b6106ac565b61058a9190610d91565b9550505050505093509350939050565b33600090815260028401602090815260408083206001600160a01b03861684529091529020805480830361061f573360008181526002808801602090815260408084206001600160a01b038a168552825280842084815560018101859055909201805462ffffff19169055928252600388019092522061061a90856106e9565b610639565b828260000160008282546106339190610da8565b90915550505b5050505050565b604080516001600160a01b038416602482015260448082018490528251808303909101815260649091019091526020810180517bffffffffffffffffffffffffffffffffffffffffffffffffffffffff1663a9059cbb60e01b1790526106a7908490610842565b505050565b60008060006106bb86866108a5565b90925090506106cb81600a610d82565b6106d58386610d91565b6106df9190610dbb565b9695505050505050565b600061074e8380548060200260200160405190810160405280929190818152602001828054801561074357602002820191906000526020600020905b81546001600160a01b03168152600190910190602001808311610725575b505050505083610aa0565b9050806101940361077257604051636b4e55dd60e11b815260040160405180910390fd5b825460009061078390600190610da8565b90508082146107fd5783818154811061079e5761079e610e09565b9060005260206000200160009054906101000a90046001600160a01b03168483815481106107ce576107ce610e09565b9060005260206000200160006101000a8154816001600160a01b0302191690836001600160a01b031602179055505b8380548061080d5761080d610e1f565b6000828152602090208101600019908101805473ffffffffffffffffffffffffffffffffffffffff1916905501905550505050565b60006108576001600160a01b03841683610b05565b9050805160001415801561087c57508080602001905181019061087a9190610e35565b155b156106a757604051635274afe760e01b81526001600160a01b03841660048201526024016100ba565b6001600160a01b03808216600090815260208490526040808220600101548151633fabe5a360e21b8152915192938493911691829163feaf968c9160048082019260a0929091908290030181865afa925050508015610921575060408051601f3d908101601f1916820190925261091e91810190610e76565b60015b61094957604051638681218760e01b81526001600160a01b03821660048201526024016100ba565b600184121561098057604051633843011160e21b815269ffffffffffffffffffff86166004820152602481018590526044016100ba565b816000036109b657604051636bd07e6160e01b815269ffffffffffffffffffff86166004820152602481018390526044016100ba565b7fdbfac48fe43e706cd186aabbc9bf037f2ab712c873b1d76438c57a9d362adf9a5474010000000000000000000000000000000000000000900463ffffffff16610a008342610da8565b1115610a2d576040516306741d7b60e11b815269ffffffffffffffffffff861660048201526024016100ba565b50919550505050806001600160a01b031663313ce5676040518163ffffffff1660e01b8152600401602060405180830381865afa158015610a72573d6000803e3d6000fd5b505050506040513d601f19601f82011682018060405250810190610a969190610c65565b9150509250929050565b81516000905b80821015610af857826001600160a01b0316848381518110610aca57610aca610e09565b60200260200101516001600160a01b031603610ae65750610aff565b81610af081610ec6565b925050610aa6565b6101949150505b92915050565b6060610b1383836000610b1a565b9392505050565b606081471015610b3f5760405163cd78605960e01b81523060048201526024016100ba565b600080856001600160a01b03168486604051610b5b9190610edf565b60006040518083038185875af1925050503d8060008114610b98576040519150601f19603f3d011682016040523d82523d6000602084013e610b9d565b606091505b50915091506106df868383606082610bbd57610bb882610c04565b610b13565b8151158015610bd457506001600160a01b0384163b155b15610bfd57604051639996b31560e01b81526001600160a01b03851660048201526024016100ba565b5080610b13565b805115610c145780518082602001fd5b604051630a12f52160e11b815260040160405180910390fd5b60008060408385031215610c4057600080fd5b82356001600160a01b0381168114610c5757600080fd5b946020939093013593505050565b600060208284031215610c7757600080fd5b815160ff81168114610b1357600080fd5b634e487b7160e01b600052601160045260246000fd5b600181815b80851115610cd9578160001904821115610cbf57610cbf610c88565b80851615610ccc57918102915b93841c9390800290610ca3565b509250929050565b600082610cf057506001610aff565b81610cfd57506000610aff565b8160018114610d135760028114610d1d57610d39565b6001915050610aff565b60ff841115610d2e57610d2e610c88565b50506001821b610aff565b5060208310610133831016604e8410600b8410161715610d5c575081810a610aff565b610d668383610c9e565b8060001904821115610d7a57610d7a610c88565b029392505050565b6000610b1360ff841683610ce1565b8082028115828204841417610aff57610aff610c88565b81810381811115610aff57610aff610c88565b600082610dd857634e487b7160e01b600052601260045260246000fd5b500490565b80820180821115610aff57610aff610c88565b600060208284031215610e0257600080fd5b5051919050565b634e487b7160e01b600052603260045260246000fd5b634e487b7160e01b600052603160045260246000fd5b600060208284031215610e4757600080fd5b81518015158114610b1357600080fd5b805169ffffffffffffffffffff81168114610e7157600080fd5b919050565b600080600080600060a08688031215610e8e57600080fd5b610e9786610e57565b9450602086015193506040860151925060608601519150610eba60808701610e57565b90509295509295909350565b600060018201610ed857610ed8610c88565b5060010190565b6000825160005b81811015610f005760208186018101518583015201610ee6565b50600092019182525091905056fea164736f6c6343000814000a",
  "devdoc": {
    "custom:version": "0.0.1",
    "errors": {
      "AddressEmptyCode(address)": [
        {
          "details": "There's no code at `target` (it is not a contract)."
        }
      ],
      "AddressInsufficientBalance(address)": [
        {
          "details": "The ETH balance of the account is not enough to perform the operation."
        }
      ],
      "FailedInnerCall()": [
        {
          "details": "A call to an address target failed. The target may have reverted."
        }
      ],
      "SafeERC20FailedOperation(address)": [
        {
          "details": "An operation with an ERC20 token failed."
        }
      ]
    },
    "kind": "dev",
    "methods": {
      "withdraw(address,uint256)": {
        "custom:advice": "Consider checking the balance of the interest-bearing token; if necessaryConsider implementing event monitoring for the interest-bearing token",
        "custom:exec": "Sanity checks -> calculation call -> burn -> records withdraw -> transfer",
        "custom:security": "`_tokenAmount` should be properly handled in the front-end. Should be solely the number of tokens (without decimal portion)"
      }
    },
    "title": "WithdrawFacet",
    "version": 1
  },
  "userdoc": {
    "events": {
      "Withdraw(address,uint256,address)": {
        "notice": "Emitted on a successful withdrawal from the protocol"
      }
    },
    "kind": "user",
    "methods": {
      "withdraw(address,uint256)": {
        "notice": "Withdraws @param _tokenAmount of @param tokenAddress"
      }
    },
    "version": 1
  },
  "storageLayout": {
    "storage": [],
    "types": null
  }
}